{
  "_format": "hh-sol-artifact-1",
  "contractName": "CaveParty",
  "sourceName": "contracts/CaveParty.sol",
  "abi": [
    {
      "inputs": [],
      "stateMutability": "nonpayable",
      "type": "constructor"
    },
    {
      "inputs": [
        {
          "internalType": "address",
          "name": "sender",
          "type": "address"
        },
        {
          "internalType": "uint256",
          "name": "tokenId",
          "type": "uint256"
        },
        {
          "internalType": "address",
          "name": "owner",
          "type": "address"
        }
      ],
      "name": "ERC721IncorrectOwner",
      "type": "error"
    },
    {
      "inputs": [
        {
          "internalType": "address",
          "name": "operator",
          "type": "address"
        },
        {
          "internalType": "uint256",
          "name": "tokenId",
          "type": "uint256"
        }
      ],
      "name": "ERC721InsufficientApproval",
      "type": "error"
    },
    {
      "inputs": [
        {
          "internalType": "address",
          "name": "approver",
          "type": "address"
        }
      ],
      "name": "ERC721InvalidApprover",
      "type": "error"
    },
    {
      "inputs": [
        {
          "internalType": "address",
          "name": "operator",
          "type": "address"
        }
      ],
      "name": "ERC721InvalidOperator",
      "type": "error"
    },
    {
      "inputs": [
        {
          "internalType": "address",
          "name": "owner",
          "type": "address"
        }
      ],
      "name": "ERC721InvalidOwner",
      "type": "error"
    },
    {
      "inputs": [
        {
          "internalType": "address",
          "name": "receiver",
          "type": "address"
        }
      ],
      "name": "ERC721InvalidReceiver",
      "type": "error"
    },
    {
      "inputs": [
        {
          "internalType": "address",
          "name": "sender",
          "type": "address"
        }
      ],
      "name": "ERC721InvalidSender",
      "type": "error"
    },
    {
      "inputs": [
        {
          "internalType": "uint256",
          "name": "tokenId",
          "type": "uint256"
        }
      ],
      "name": "ERC721NonexistentToken",
      "type": "error"
    },
    {
      "inputs": [
        {
          "internalType": "address",
          "name": "owner",
          "type": "address"
        }
      ],
      "name": "OwnableInvalidOwner",
      "type": "error"
    },
    {
      "inputs": [
        {
          "internalType": "address",
          "name": "account",
          "type": "address"
        }
      ],
      "name": "OwnableUnauthorizedAccount",
      "type": "error"
    },
    {
      "anonymous": false,
      "inputs": [
        {
          "indexed": true,
          "internalType": "address",
          "name": "owner",
          "type": "address"
        },
        {
          "indexed": true,
          "internalType": "address",
          "name": "approved",
          "type": "address"
        },
        {
          "indexed": true,
          "internalType": "uint256",
          "name": "tokenId",
          "type": "uint256"
        }
      ],
      "name": "Approval",
      "type": "event"
    },
    {
      "anonymous": false,
      "inputs": [
        {
          "indexed": true,
          "internalType": "address",
          "name": "owner",
          "type": "address"
        },
        {
          "indexed": true,
          "internalType": "address",
          "name": "operator",
          "type": "address"
        },
        {
          "indexed": false,
          "internalType": "bool",
          "name": "approved",
          "type": "bool"
        }
      ],
      "name": "ApprovalForAll",
      "type": "event"
    },
    {
      "anonymous": false,
      "inputs": [
        {
          "indexed": false,
          "internalType": "uint256",
          "name": "tokenId",
          "type": "uint256"
        }
      ],
      "name": "Minted",
      "type": "event"
    },
    {
      "anonymous": false,
      "inputs": [
        {
          "indexed": true,
          "internalType": "address",
          "name": "previousOwner",
          "type": "address"
        },
        {
          "indexed": true,
          "internalType": "address",
          "name": "newOwner",
          "type": "address"
        }
      ],
      "name": "OwnershipTransferred",
      "type": "event"
    },
    {
      "anonymous": false,
      "inputs": [
        {
          "indexed": true,
          "internalType": "address",
          "name": "from",
          "type": "address"
        },
        {
          "indexed": true,
          "internalType": "address",
          "name": "to",
          "type": "address"
        },
        {
          "indexed": true,
          "internalType": "uint256",
          "name": "tokenId",
          "type": "uint256"
        }
      ],
      "name": "Transfer",
      "type": "event"
    },
    {
      "inputs": [
        {
          "internalType": "address",
          "name": "to",
          "type": "address"
        },
        {
          "internalType": "uint256",
          "name": "tokenId",
          "type": "uint256"
        }
      ],
      "name": "approve",
      "outputs": [],
      "stateMutability": "nonpayable",
      "type": "function"
    },
    {
      "inputs": [],
      "name": "assetMetadata",
      "outputs": [
        {
          "internalType": "string",
          "name": "",
          "type": "string"
        }
      ],
      "stateMutability": "view",
      "type": "function"
    },
    {
      "inputs": [
        {
          "internalType": "address",
          "name": "owner",
          "type": "address"
        }
      ],
      "name": "balanceOf",
      "outputs": [
        {
          "internalType": "uint256",
          "name": "",
          "type": "uint256"
        }
      ],
      "stateMutability": "view",
      "type": "function"
    },
    {
      "inputs": [
        {
          "internalType": "uint256",
          "name": "tokenId",
          "type": "uint256"
        }
      ],
      "name": "getApproved",
      "outputs": [
        {
          "internalType": "address",
          "name": "",
          "type": "address"
        }
      ],
      "stateMutability": "view",
      "type": "function"
    },
    {
      "inputs": [],
      "name": "getAssetMetadata",
      "outputs": [
        {
          "internalType": "string",
          "name": "",
          "type": "string"
        }
      ],
      "stateMutability": "view",
      "type": "function"
    },
    {
      "inputs": [],
      "name": "getMyWalletMints",
      "outputs": [
        {
          "internalType": "uint256",
          "name": "",
          "type": "uint256"
        }
      ],
      "stateMutability": "view",
      "type": "function"
    },
    {
      "inputs": [
        {
          "internalType": "address",
          "name": "owner",
          "type": "address"
        },
        {
          "internalType": "address",
          "name": "operator",
          "type": "address"
        }
      ],
      "name": "isApprovedForAll",
      "outputs": [
        {
          "internalType": "bool",
          "name": "",
          "type": "bool"
        }
      ],
      "stateMutability": "view",
      "type": "function"
    },
    {
      "inputs": [],
      "name": "maxPerWallet",
      "outputs": [
        {
          "internalType": "uint256",
          "name": "",
          "type": "uint256"
        }
      ],
      "stateMutability": "view",
      "type": "function"
    },
    {
      "inputs": [],
      "name": "mintPrice",
      "outputs": [
        {
          "internalType": "uint256",
          "name": "",
          "type": "uint256"
        }
      ],
      "stateMutability": "view",
      "type": "function"
    },
    {
      "inputs": [],
      "name": "mintToken",
      "outputs": [],
      "stateMutability": "payable",
      "type": "function"
    },
    {
      "inputs": [],
      "name": "name",
      "outputs": [
        {
          "internalType": "string",
          "name": "",
          "type": "string"
        }
      ],
      "stateMutability": "view",
      "type": "function"
    },
    {
      "inputs": [],
      "name": "owner",
      "outputs": [
        {
          "internalType": "address",
          "name": "",
          "type": "address"
        }
      ],
      "stateMutability": "view",
      "type": "function"
    },
    {
      "inputs": [
        {
          "internalType": "uint256",
          "name": "tokenId",
          "type": "uint256"
        }
      ],
      "name": "ownerOf",
      "outputs": [
        {
          "internalType": "address",
          "name": "",
          "type": "address"
        }
      ],
      "stateMutability": "view",
      "type": "function"
    },
    {
      "inputs": [],
      "name": "renounceOwnership",
      "outputs": [],
      "stateMutability": "nonpayable",
      "type": "function"
    },
    {
      "inputs": [
        {
          "internalType": "address",
          "name": "from",
          "type": "address"
        },
        {
          "internalType": "address",
          "name": "to",
          "type": "address"
        },
        {
          "internalType": "uint256",
          "name": "tokenId",
          "type": "uint256"
        }
      ],
      "name": "safeTransferFrom",
      "outputs": [],
      "stateMutability": "nonpayable",
      "type": "function"
    },
    {
      "inputs": [
        {
          "internalType": "address",
          "name": "from",
          "type": "address"
        },
        {
          "internalType": "address",
          "name": "to",
          "type": "address"
        },
        {
          "internalType": "uint256",
          "name": "tokenId",
          "type": "uint256"
        },
        {
          "internalType": "bytes",
          "name": "data",
          "type": "bytes"
        }
      ],
      "name": "safeTransferFrom",
      "outputs": [],
      "stateMutability": "nonpayable",
      "type": "function"
    },
    {
      "inputs": [
        {
          "internalType": "address",
          "name": "operator",
          "type": "address"
        },
        {
          "internalType": "bool",
          "name": "approved",
          "type": "bool"
        }
      ],
      "name": "setApprovalForAll",
      "outputs": [],
      "stateMutability": "nonpayable",
      "type": "function"
    },
    {
      "inputs": [
        {
          "internalType": "bytes4",
          "name": "interfaceId",
          "type": "bytes4"
        }
      ],
      "name": "supportsInterface",
      "outputs": [
        {
          "internalType": "bool",
          "name": "",
          "type": "bool"
        }
      ],
      "stateMutability": "view",
      "type": "function"
    },
    {
      "inputs": [],
      "name": "symbol",
      "outputs": [
        {
          "internalType": "string",
          "name": "",
          "type": "string"
        }
      ],
      "stateMutability": "view",
      "type": "function"
    },
    {
      "inputs": [
        {
          "internalType": "uint256",
          "name": "tokenId",
          "type": "uint256"
        }
      ],
      "name": "tokenURI",
      "outputs": [
        {
          "internalType": "string",
          "name": "",
          "type": "string"
        }
      ],
      "stateMutability": "view",
      "type": "function"
    },
    {
      "inputs": [],
      "name": "totalMints",
      "outputs": [
        {
          "internalType": "uint256",
          "name": "",
          "type": "uint256"
        }
      ],
      "stateMutability": "view",
      "type": "function"
    },
    {
      "inputs": [
        {
          "internalType": "address",
          "name": "from",
          "type": "address"
        },
        {
          "internalType": "address",
          "name": "to",
          "type": "address"
        },
        {
          "internalType": "uint256",
          "name": "tokenId",
          "type": "uint256"
        }
      ],
      "name": "transferFrom",
      "outputs": [],
      "stateMutability": "nonpayable",
      "type": "function"
    },
    {
      "inputs": [
        {
          "internalType": "address",
          "name": "newOwner",
          "type": "address"
        }
      ],
      "name": "transferOwnership",
      "outputs": [],
      "stateMutability": "nonpayable",
      "type": "function"
    },
    {
      "inputs": [
        {
          "internalType": "string",
          "name": "_newAssetMetadata",
          "type": "string"
        }
      ],
      "name": "updateMetadata",
      "outputs": [],
      "stateMutability": "nonpayable",
      "type": "function"
    },
    {
      "inputs": [
        {
          "internalType": "address",
          "name": "",
          "type": "address"
        }
      ],
      "name": "walletMints",
      "outputs": [
        {
          "internalType": "uint256",
          "name": "",
          "type": "uint256"
        }
      ],
      "stateMutability": "view",
      "type": "function"
    },
    {
      "inputs": [],
      "name": "withdrawFunds",
      "outputs": [],
      "stateMutability": "nonpayable",
      "type": "function"
    }
  ],
  "bytecode": "0x60806040526000600755655af3107a4000600855600160095560405180608001604052806050815260200162002fe360509139600a9081620000429190620004b1565b503480156200005057600080fd5b50336040518060400160405280600981526020017f43617665506172747900000000000000000000000000000000000000000000008152506040518060400160405280600381526020017f43505900000000000000000000000000000000000000000000000000000000008152508160009081620000cf9190620004b1565b508060019081620000e19190620004b1565b505050600073ffffffffffffffffffffffffffffffffffffffff168173ffffffffffffffffffffffffffffffffffffffff1603620001595760006040517f1e4fbdf7000000000000000000000000000000000000000000000000000000008152600401620001509190620005dd565b60405180910390fd5b6200016a816200017160201b60201c565b50620005fa565b6000600660009054906101000a900473ffffffffffffffffffffffffffffffffffffffff16905081600660006101000a81548173ffffffffffffffffffffffffffffffffffffffff021916908373ffffffffffffffffffffffffffffffffffffffff1602179055508173ffffffffffffffffffffffffffffffffffffffff168173ffffffffffffffffffffffffffffffffffffffff167f8be0079c531659141344cd1fd0a4f28419497f9722a3daafe3b4186f6b6457e060405160405180910390a35050565b600081519050919050565b7f4e487b7100000000000000000000000000000000000000000000000000000000600052604160045260246000fd5b7f4e487b7100000000000000000000000000000000000000000000000000000000600052602260045260246000fd5b60006002820490506001821680620002b957607f821691505b602082108103620002cf57620002ce62000271565b5b50919050565b60008190508160005260206000209050919050565b60006020601f8301049050919050565b600082821b905092915050565b600060088302620003397fffffffffffffffffffffffffffffffffffffffffffffffffffffffffffffffff82620002fa565b620003458683620002fa565b95508019841693508086168417925050509392505050565b6000819050919050565b6000819050919050565b6000620003926200038c62000386846200035d565b62000367565b6200035d565b9050919050565b6000819050919050565b620003ae8362000371565b620003c6620003bd8262000399565b84845462000307565b825550505050565b600090565b620003dd620003ce565b620003ea818484620003a3565b505050565b5b81811015620004125762000406600082620003d3565b600181019050620003f0565b5050565b601f82111562000461576200042b81620002d5565b6200043684620002ea565b8101602085101562000446578190505b6200045e6200045585620002ea565b830182620003ef565b50505b505050565b600082821c905092915050565b6000620004866000198460080262000466565b1980831691505092915050565b6000620004a1838362000473565b9150826002028217905092915050565b620004bc8262000237565b67ffffffffffffffff811115620004d857620004d762000242565b5b620004e48254620002a0565b620004f182828562000416565b600060209050601f83116001811462000529576000841562000514578287015190505b62000520858262000493565b86555062000590565b601f1984166200053986620002d5565b60005b8281101562000563578489015182556001820191506020850194506020810190506200053c565b868310156200058357848901516200057f601f89168262000473565b8355505b6001600288020188555050505b505050505050565b600073ffffffffffffffffffffffffffffffffffffffff82169050919050565b6000620005c58262000598565b9050919050565b620005d781620005b8565b82525050565b6000602082019050620005f46000830184620005cc565b92915050565b6129d9806200060a6000396000f3fe6080604052600436106101815760003560e01c806370a08231116100d1578063a22cb4651161008a578063ddd71ede11610064578063ddd71ede1461053d578063e985e9c514610568578063f0293fd3146105a5578063f2fde38b146105e257610181565b8063a22cb465146104ae578063b88d4fde146104d7578063c87b56dd1461050057610181565b806370a08231146103b0578063715018a6146103ed57806388662de9146104045780638da5cb5b1461042f578063918b5be11461045a57806395d89b411461048357610181565b806323b872dd1161013e578063453c231011610118578063453c2310146102f2578063505168081461031d5780636352211e146103485780636817c76c1461038557610181565b806323b872dd1461028957806324600fc3146102b257806342842e0e146102c957610181565b806301ffc9a71461018657806306fdde03146101c3578063081812fc146101ee578063095ea7b31461022b5780631f21bfbf146102545780632004ffd91461027f575b600080fd5b34801561019257600080fd5b506101ad60048036038101906101a89190611d15565b61060b565b6040516101ba9190611d5d565b60405180910390f35b3480156101cf57600080fd5b506101d86106ed565b6040516101e59190611e08565b60405180910390f35b3480156101fa57600080fd5b5061021560048036038101906102109190611e60565b61077f565b6040516102229190611ece565b60405180910390f35b34801561023757600080fd5b50610252600480360381019061024d9190611f15565b61079b565b005b34801561026057600080fd5b506102696107b1565b6040516102769190611f64565b60405180910390f35b6102876107b7565b005b34801561029557600080fd5b506102b060048036038101906102ab9190611f7f565b6108e1565b005b3480156102be57600080fd5b506102c76109e3565b005b3480156102d557600080fd5b506102f060048036038101906102eb9190611f7f565b610aa1565b005b3480156102fe57600080fd5b50610307610ac1565b6040516103149190611f64565b60405180910390f35b34801561032957600080fd5b50610332610ac7565b60405161033f9190611f64565b60405180910390f35b34801561035457600080fd5b5061036f600480360381019061036a9190611e60565b610b0e565b60405161037c9190611ece565b60405180910390f35b34801561039157600080fd5b5061039a610b20565b6040516103a79190611f64565b60405180910390f35b3480156103bc57600080fd5b506103d760048036038101906103d29190611fd2565b610b26565b6040516103e49190611f64565b60405180910390f35b3480156103f957600080fd5b50610402610be0565b005b34801561041057600080fd5b50610419610bf4565b6040516104269190611e08565b60405180910390f35b34801561043b57600080fd5b50610444610c82565b6040516104519190611ece565b60405180910390f35b34801561046657600080fd5b50610481600480360381019061047c9190612134565b610cac565b005b34801561048f57600080fd5b50610498610cc7565b6040516104a59190611e08565b60405180910390f35b3480156104ba57600080fd5b506104d560048036038101906104d091906121a9565b610d59565b005b3480156104e357600080fd5b506104fe60048036038101906104f9919061228a565b610d6f565b005b34801561050c57600080fd5b5061052760048036038101906105229190611e60565b610d8c565b6040516105349190611e08565b60405180910390f35b34801561054957600080fd5b50610552610e20565b60405161055f9190611e08565b60405180910390f35b34801561057457600080fd5b5061058f600480360381019061058a919061230d565b610eba565b60405161059c9190611d5d565b60405180910390f35b3480156105b157600080fd5b506105cc60048036038101906105c79190611fd2565b610f4e565b6040516105d99190611f64565b60405180910390f35b3480156105ee57600080fd5b5061060960048036038101906106049190611fd2565b610f66565b005b60007f80ac58cd000000000000000000000000000000000000000000000000000000007bffffffffffffffffffffffffffffffffffffffffffffffffffffffff1916827bffffffffffffffffffffffffffffffffffffffffffffffffffffffff191614806106d657507f5b5e139f000000000000000000000000000000000000000000000000000000007bffffffffffffffffffffffffffffffffffffffffffffffffffffffff1916827bffffffffffffffffffffffffffffffffffffffffffffffffffffffff1916145b806106e657506106e582610fec565b5b9050919050565b6060600080546106fc9061237c565b80601f01602080910402602001604051908101604052809291908181526020018280546107289061237c565b80156107755780601f1061074a57610100808354040283529160200191610775565b820191906000526020600020905b81548152906001019060200180831161075857829003601f168201915b5050505050905090565b600061078a82611056565b50610794826110de565b9050919050565b6107ad82826107a861111b565b611123565b5050565b60075481565b3460085410156107fc576040517f08c379a00000000000000000000000000000000000000000000000000000000081526004016107f3906123f9565b60405180910390fd5b600954600b60003373ffffffffffffffffffffffffffffffffffffffff1673ffffffffffffffffffffffffffffffffffffffff168152602001908152602001600020541061087f576040517f08c379a000000000000000000000000000000000000000000000000000000000815260040161087690612465565b60405180910390fd5b6001600b60003373ffffffffffffffffffffffffffffffffffffffff1673ffffffffffffffffffffffffffffffffffffffff16815260200190815260200160002060008282546108cf91906124b4565b925050819055506108df33611135565b565b600073ffffffffffffffffffffffffffffffffffffffff168273ffffffffffffffffffffffffffffffffffffffff16036109535760006040517f64a0ae9200000000000000000000000000000000000000000000000000000000815260040161094a9190611ece565b60405180910390fd5b6000610967838361096261111b565b611162565b90508373ffffffffffffffffffffffffffffffffffffffff168173ffffffffffffffffffffffffffffffffffffffff16146109dd578382826040517f64283d7b0000000000000000000000000000000000000000000000000000000081526004016109d4939291906124e8565b60405180910390fd5b50505050565b6109eb61137c565b60006109f5610c82565b73ffffffffffffffffffffffffffffffffffffffff1647604051610a1890612550565b60006040518083038185875af1925050503d8060008114610a55576040519150601f19603f3d011682016040523d82523d6000602084013e610a5a565b606091505b5050905080610a9e576040517f08c379a0000000000000000000000000000000000000000000000000000000008152600401610a95906125b1565b60405180910390fd5b50565b610abc83838360405180602001604052806000815250610d6f565b505050565b60095481565b6000600b60003373ffffffffffffffffffffffffffffffffffffffff1673ffffffffffffffffffffffffffffffffffffffff16815260200190815260200160002054905090565b6000610b1982611056565b9050919050565b60085481565b60008073ffffffffffffffffffffffffffffffffffffffff168273ffffffffffffffffffffffffffffffffffffffff1603610b995760006040517f89c62b64000000000000000000000000000000000000000000000000000000008152600401610b909190611ece565b60405180910390fd5b600360008373ffffffffffffffffffffffffffffffffffffffff1673ffffffffffffffffffffffffffffffffffffffff168152602001908152602001600020549050919050565b610be861137c565b610bf26000611403565b565b600a8054610c019061237c565b80601f0160208091040260200160405190810160405280929190818152602001828054610c2d9061237c565b8015610c7a5780601f10610c4f57610100808354040283529160200191610c7a565b820191906000526020600020905b815481529060010190602001808311610c5d57829003601f168201915b505050505081565b6000600660009054906101000a900473ffffffffffffffffffffffffffffffffffffffff16905090565b610cb461137c565b80600a9081610cc3919061277d565b5050565b606060018054610cd69061237c565b80601f0160208091040260200160405190810160405280929190818152602001828054610d029061237c565b8015610d4f5780601f10610d2457610100808354040283529160200191610d4f565b820191906000526020600020905b815481529060010190602001808311610d3257829003601f168201915b5050505050905090565b610d6b610d6461111b565b83836114c9565b5050565b610d7a8484846108e1565b610d8684848484611638565b50505050565b6060600a8054610d9b9061237c565b80601f0160208091040260200160405190810160405280929190818152602001828054610dc79061237c565b8015610e145780601f10610de957610100808354040283529160200191610e14565b820191906000526020600020905b815481529060010190602001808311610df757829003601f168201915b50505050509050919050565b6060610e2a61137c565b600a8054610e379061237c565b80601f0160208091040260200160405190810160405280929190818152602001828054610e639061237c565b8015610eb05780601f10610e8557610100808354040283529160200191610eb0565b820191906000526020600020905b815481529060010190602001808311610e9357829003601f168201915b5050505050905090565b6000600560008473ffffffffffffffffffffffffffffffffffffffff1673ffffffffffffffffffffffffffffffffffffffff16815260200190815260200160002060008373ffffffffffffffffffffffffffffffffffffffff1673ffffffffffffffffffffffffffffffffffffffff16815260200190815260200160002060009054906101000a900460ff16905092915050565b600b6020528060005260406000206000915090505481565b610f6e61137c565b600073ffffffffffffffffffffffffffffffffffffffff168173ffffffffffffffffffffffffffffffffffffffff1603610fe05760006040517f1e4fbdf7000000000000000000000000000000000000000000000000000000008152600401610fd79190611ece565b60405180910390fd5b610fe981611403565b50565b60007f01ffc9a7000000000000000000000000000000000000000000000000000000007bffffffffffffffffffffffffffffffffffffffffffffffffffffffff1916827bffffffffffffffffffffffffffffffffffffffffffffffffffffffff1916149050919050565b600080611062836117ef565b9050600073ffffffffffffffffffffffffffffffffffffffff168173ffffffffffffffffffffffffffffffffffffffff16036110d557826040517f7e2732890000000000000000000000000000000000000000000000000000000081526004016110cc9190611f64565b60405180910390fd5b80915050919050565b60006004600083815260200190815260200160002060009054906101000a900473ffffffffffffffffffffffffffffffffffffffff169050919050565b600033905090565b611130838383600161182c565b505050565b600060075490506007600081548092919061114f9061284f565b919050555061115e82826119f1565b5050565b60008061116e846117ef565b9050600073ffffffffffffffffffffffffffffffffffffffff168373ffffffffffffffffffffffffffffffffffffffff16146111b0576111af818486611a0f565b5b600073ffffffffffffffffffffffffffffffffffffffff168173ffffffffffffffffffffffffffffffffffffffff1614611241576111f260008560008061182c565b6001600360008373ffffffffffffffffffffffffffffffffffffffff1673ffffffffffffffffffffffffffffffffffffffff168152602001908152602001600020600082825403925050819055505b600073ffffffffffffffffffffffffffffffffffffffff168573ffffffffffffffffffffffffffffffffffffffff16146112c4576001600360008773ffffffffffffffffffffffffffffffffffffffff1673ffffffffffffffffffffffffffffffffffffffff168152602001908152602001600020600082825401925050819055505b846002600086815260200190815260200160002060006101000a81548173ffffffffffffffffffffffffffffffffffffffff021916908373ffffffffffffffffffffffffffffffffffffffff160217905550838573ffffffffffffffffffffffffffffffffffffffff168273ffffffffffffffffffffffffffffffffffffffff167fddf252ad1be2c89b69c2b068fc378daa952ba7f163c4a11628f55a4df523b3ef60405160405180910390a4809150509392505050565b61138461111b565b73ffffffffffffffffffffffffffffffffffffffff166113a2610c82565b73ffffffffffffffffffffffffffffffffffffffff1614611401576113c561111b565b6040517f118cdaa70000000000000000000000000000000000000000000000000000000081526004016113f89190611ece565b60405180910390fd5b565b6000600660009054906101000a900473ffffffffffffffffffffffffffffffffffffffff16905081600660006101000a81548173ffffffffffffffffffffffffffffffffffffffff021916908373ffffffffffffffffffffffffffffffffffffffff1602179055508173ffffffffffffffffffffffffffffffffffffffff168173ffffffffffffffffffffffffffffffffffffffff167f8be0079c531659141344cd1fd0a4f28419497f9722a3daafe3b4186f6b6457e060405160405180910390a35050565b600073ffffffffffffffffffffffffffffffffffffffff168273ffffffffffffffffffffffffffffffffffffffff160361153a57816040517f5b08ba180000000000000000000000000000000000000000000000000000000081526004016115319190611ece565b60405180910390fd5b80600560008573ffffffffffffffffffffffffffffffffffffffff1673ffffffffffffffffffffffffffffffffffffffff16815260200190815260200160002060008473ffffffffffffffffffffffffffffffffffffffff1673ffffffffffffffffffffffffffffffffffffffff16815260200190815260200160002060006101000a81548160ff0219169083151502179055508173ffffffffffffffffffffffffffffffffffffffff168373ffffffffffffffffffffffffffffffffffffffff167f17307eab39ab6107e8899845ad3d59bd9653f200f220920489ca2b5937696c318360405161162b9190611d5d565b60405180910390a3505050565b60008373ffffffffffffffffffffffffffffffffffffffff163b11156117e9578273ffffffffffffffffffffffffffffffffffffffff1663150b7a0261167c61111b565b8685856040518563ffffffff1660e01b815260040161169e94939291906128ec565b6020604051808303816000875af19250505080156116da57506040513d601f19601f820116820180604052508101906116d7919061294d565b60015b61175e573d806000811461170a576040519150601f19603f3d011682016040523d82523d6000602084013e61170f565b606091505b50600081510361175657836040517f64a0ae9200000000000000000000000000000000000000000000000000000000815260040161174d9190611ece565b60405180910390fd5b805181602001fd5b63150b7a0260e01b7bffffffffffffffffffffffffffffffffffffffffffffffffffffffff1916817bffffffffffffffffffffffffffffffffffffffffffffffffffffffff1916146117e757836040517f64a0ae920000000000000000000000000000000000000000000000000000000081526004016117de9190611ece565b60405180910390fd5b505b50505050565b60006002600083815260200190815260200160002060009054906101000a900473ffffffffffffffffffffffffffffffffffffffff169050919050565b80806118655750600073ffffffffffffffffffffffffffffffffffffffff168273ffffffffffffffffffffffffffffffffffffffff1614155b1561199957600061187584611056565b9050600073ffffffffffffffffffffffffffffffffffffffff168373ffffffffffffffffffffffffffffffffffffffff16141580156118e057508273ffffffffffffffffffffffffffffffffffffffff168173ffffffffffffffffffffffffffffffffffffffff1614155b80156118f357506118f18184610eba565b155b1561193557826040517fa9fbf51f00000000000000000000000000000000000000000000000000000000815260040161192c9190611ece565b60405180910390fd5b811561199757838573ffffffffffffffffffffffffffffffffffffffff168273ffffffffffffffffffffffffffffffffffffffff167f8c5be1e5ebec7d5bd14f71427d1e84f3dd0314c0f7b2291e5b200ac8c7c3b92560405160405180910390a45b505b836004600085815260200190815260200160002060006101000a81548173ffffffffffffffffffffffffffffffffffffffff021916908373ffffffffffffffffffffffffffffffffffffffff16021790555050505050565b611a0b828260405180602001604052806000815250611ad3565b5050565b611a1a838383611aef565b611ace57600073ffffffffffffffffffffffffffffffffffffffff168373ffffffffffffffffffffffffffffffffffffffff1603611a8f57806040517f7e273289000000000000000000000000000000000000000000000000000000008152600401611a869190611f64565b60405180910390fd5b81816040517f177e802f000000000000000000000000000000000000000000000000000000008152600401611ac592919061297a565b60405180910390fd5b505050565b611add8383611bb0565b611aea6000848484611638565b505050565b60008073ffffffffffffffffffffffffffffffffffffffff168373ffffffffffffffffffffffffffffffffffffffff1614158015611ba757508273ffffffffffffffffffffffffffffffffffffffff168473ffffffffffffffffffffffffffffffffffffffff161480611b685750611b678484610eba565b5b80611ba657508273ffffffffffffffffffffffffffffffffffffffff16611b8e836110de565b73ffffffffffffffffffffffffffffffffffffffff16145b5b90509392505050565b600073ffffffffffffffffffffffffffffffffffffffff168273ffffffffffffffffffffffffffffffffffffffff1603611c225760006040517f64a0ae92000000000000000000000000000000000000000000000000000000008152600401611c199190611ece565b60405180910390fd5b6000611c3083836000611162565b9050600073ffffffffffffffffffffffffffffffffffffffff168173ffffffffffffffffffffffffffffffffffffffff1614611ca45760006040517f73c6ac6e000000000000000000000000000000000000000000000000000000008152600401611c9b9190611ece565b60405180910390fd5b505050565b6000604051905090565b600080fd5b600080fd5b60007fffffffff0000000000000000000000000000000000000000000000000000000082169050919050565b611cf281611cbd565b8114611cfd57600080fd5b50565b600081359050611d0f81611ce9565b92915050565b600060208284031215611d2b57611d2a611cb3565b5b6000611d3984828501611d00565b91505092915050565b60008115159050919050565b611d5781611d42565b82525050565b6000602082019050611d726000830184611d4e565b92915050565b600081519050919050565b600082825260208201905092915050565b60005b83811015611db2578082015181840152602081019050611d97565b60008484015250505050565b6000601f19601f8301169050919050565b6000611dda82611d78565b611de48185611d83565b9350611df4818560208601611d94565b611dfd81611dbe565b840191505092915050565b60006020820190508181036000830152611e228184611dcf565b905092915050565b6000819050919050565b611e3d81611e2a565b8114611e4857600080fd5b50565b600081359050611e5a81611e34565b92915050565b600060208284031215611e7657611e75611cb3565b5b6000611e8484828501611e4b565b91505092915050565b600073ffffffffffffffffffffffffffffffffffffffff82169050919050565b6000611eb882611e8d565b9050919050565b611ec881611ead565b82525050565b6000602082019050611ee36000830184611ebf565b92915050565b611ef281611ead565b8114611efd57600080fd5b50565b600081359050611f0f81611ee9565b92915050565b60008060408385031215611f2c57611f2b611cb3565b5b6000611f3a85828601611f00565b9250506020611f4b85828601611e4b565b9150509250929050565b611f5e81611e2a565b82525050565b6000602082019050611f796000830184611f55565b92915050565b600080600060608486031215611f9857611f97611cb3565b5b6000611fa686828701611f00565b9350506020611fb786828701611f00565b9250506040611fc886828701611e4b565b9150509250925092565b600060208284031215611fe857611fe7611cb3565b5b6000611ff684828501611f00565b91505092915050565b600080fd5b600080fd5b7f4e487b7100000000000000000000000000000000000000000000000000000000600052604160045260246000fd5b61204182611dbe565b810181811067ffffffffffffffff821117156120605761205f612009565b5b80604052505050565b6000612073611ca9565b905061207f8282612038565b919050565b600067ffffffffffffffff82111561209f5761209e612009565b5b6120a882611dbe565b9050602081019050919050565b82818337600083830152505050565b60006120d76120d284612084565b612069565b9050828152602081018484840111156120f3576120f2612004565b5b6120fe8482856120b5565b509392505050565b600082601f83011261211b5761211a611fff565b5b813561212b8482602086016120c4565b91505092915050565b60006020828403121561214a57612149611cb3565b5b600082013567ffffffffffffffff81111561216857612167611cb8565b5b61217484828501612106565b91505092915050565b61218681611d42565b811461219157600080fd5b50565b6000813590506121a38161217d565b92915050565b600080604083850312156121c0576121bf611cb3565b5b60006121ce85828601611f00565b92505060206121df85828601612194565b9150509250929050565b600067ffffffffffffffff82111561220457612203612009565b5b61220d82611dbe565b9050602081019050919050565b600061222d612228846121e9565b612069565b90508281526020810184848401111561224957612248612004565b5b6122548482856120b5565b509392505050565b600082601f83011261227157612270611fff565b5b813561228184826020860161221a565b91505092915050565b600080600080608085870312156122a4576122a3611cb3565b5b60006122b287828801611f00565b94505060206122c387828801611f00565b93505060406122d487828801611e4b565b925050606085013567ffffffffffffffff8111156122f5576122f4611cb8565b5b6123018782880161225c565b91505092959194509250565b6000806040838503121561232457612323611cb3565b5b600061233285828601611f00565b925050602061234385828601611f00565b9150509250929050565b7f4e487b7100000000000000000000000000000000000000000000000000000000600052602260045260246000fd5b6000600282049050600182168061239457607f821691505b6020821081036123a7576123a661234d565b5b50919050565b7f302e3030303120657468657220726571756972656420746f206d696e74000000600082015250565b60006123e3601d83611d83565b91506123ee826123ad565b602082019050919050565b60006020820190508181036000830152612412816123d6565b9050919050565b7f6d696e7473207065722077616c6c657420657863656564656400000000000000600082015250565b600061244f601983611d83565b915061245a82612419565b602082019050919050565b6000602082019050818103600083015261247e81612442565b9050919050565b7f4e487b7100000000000000000000000000000000000000000000000000000000600052601160045260246000fd5b60006124bf82611e2a565b91506124ca83611e2a565b92508282019050808211156124e2576124e1612485565b5b92915050565b60006060820190506124fd6000830186611ebf565b61250a6020830185611f55565b6125176040830184611ebf565b949350505050565b600081905092915050565b50565b600061253a60008361251f565b91506125458261252a565b600082019050919050565b600061255b8261252d565b9150819050919050565b7f7769746864726177616c206661696c6564000000000000000000000000000000600082015250565b600061259b601183611d83565b91506125a682612565565b602082019050919050565b600060208201905081810360008301526125ca8161258e565b9050919050565b60008190508160005260206000209050919050565b60006020601f8301049050919050565b600082821b905092915050565b6000600883026126337fffffffffffffffffffffffffffffffffffffffffffffffffffffffffffffffff826125f6565b61263d86836125f6565b95508019841693508086168417925050509392505050565b6000819050919050565b600061267a61267561267084611e2a565b612655565b611e2a565b9050919050565b6000819050919050565b6126948361265f565b6126a86126a082612681565b848454612603565b825550505050565b600090565b6126bd6126b0565b6126c881848461268b565b505050565b5b818110156126ec576126e16000826126b5565b6001810190506126ce565b5050565b601f82111561273157612702816125d1565b61270b846125e6565b8101602085101561271a578190505b61272e612726856125e6565b8301826126cd565b50505b505050565b600082821c905092915050565b600061275460001984600802612736565b1980831691505092915050565b600061276d8383612743565b9150826002028217905092915050565b61278682611d78565b67ffffffffffffffff81111561279f5761279e612009565b5b6127a9825461237c565b6127b48282856126f0565b600060209050601f8311600181146127e757600084156127d5578287015190505b6127df8582612761565b865550612847565b601f1984166127f5866125d1565b60005b8281101561281d578489015182556001820191506020850194506020810190506127f8565b8683101561283a5784890151612836601f891682612743565b8355505b6001600288020188555050505b505050505050565b600061285a82611e2a565b91507fffffffffffffffffffffffffffffffffffffffffffffffffffffffffffffffff820361288c5761288b612485565b5b600182019050919050565b600081519050919050565b600082825260208201905092915050565b60006128be82612897565b6128c881856128a2565b93506128d8818560208601611d94565b6128e181611dbe565b840191505092915050565b60006080820190506129016000830187611ebf565b61290e6020830186611ebf565b61291b6040830185611f55565b818103606083015261292d81846128b3565b905095945050505050565b60008151905061294781611ce9565b92915050565b60006020828403121561296357612962611cb3565b5b600061297184828501612938565b91505092915050565b600060408201905061298f6000830185611ebf565b61299c6020830184611f55565b939250505056fea2646970667358221220e57962dc82f15d30f997c85812e3b11435df344ba49a28fdda6b8ab545ebbc7a64736f6c6343000818003368747470733a2f2f676174657761792e70696e6174612e636c6f75642f697066732f516d63733236623470683478714e7977655763697138483667546b6845536434795a744543566d45534d5750426f",
  "linkReferences": {},
  "deployedLinkReferences": {}
}