{
  "_format": "hh-sol-artifact-1",
  "contractName": "CaveParty",
  "sourceName": "contracts/CaveParty.sol",
  "abi": [
    {
      "inputs": [],
      "stateMutability": "nonpayable",
      "type": "constructor"
    },
    {
      "inputs": [
        {
          "internalType": "address",
          "name": "sender",
          "type": "address"
        },
        {
          "internalType": "uint256",
          "name": "tokenId",
          "type": "uint256"
        },
        {
          "internalType": "address",
          "name": "owner",
          "type": "address"
        }
      ],
      "name": "ERC721IncorrectOwner",
      "type": "error"
    },
    {
      "inputs": [
        {
          "internalType": "address",
          "name": "operator",
          "type": "address"
        },
        {
          "internalType": "uint256",
          "name": "tokenId",
          "type": "uint256"
        }
      ],
      "name": "ERC721InsufficientApproval",
      "type": "error"
    },
    {
      "inputs": [
        {
          "internalType": "address",
          "name": "approver",
          "type": "address"
        }
      ],
      "name": "ERC721InvalidApprover",
      "type": "error"
    },
    {
      "inputs": [
        {
          "internalType": "address",
          "name": "operator",
          "type": "address"
        }
      ],
      "name": "ERC721InvalidOperator",
      "type": "error"
    },
    {
      "inputs": [
        {
          "internalType": "address",
          "name": "owner",
          "type": "address"
        }
      ],
      "name": "ERC721InvalidOwner",
      "type": "error"
    },
    {
      "inputs": [
        {
          "internalType": "address",
          "name": "receiver",
          "type": "address"
        }
      ],
      "name": "ERC721InvalidReceiver",
      "type": "error"
    },
    {
      "inputs": [
        {
          "internalType": "address",
          "name": "sender",
          "type": "address"
        }
      ],
      "name": "ERC721InvalidSender",
      "type": "error"
    },
    {
      "inputs": [
        {
          "internalType": "uint256",
          "name": "tokenId",
          "type": "uint256"
        }
      ],
      "name": "ERC721NonexistentToken",
      "type": "error"
    },
    {
      "inputs": [
        {
          "internalType": "address",
          "name": "owner",
          "type": "address"
        }
      ],
      "name": "OwnableInvalidOwner",
      "type": "error"
    },
    {
      "inputs": [
        {
          "internalType": "address",
          "name": "account",
          "type": "address"
        }
      ],
      "name": "OwnableUnauthorizedAccount",
      "type": "error"
    },
    {
      "anonymous": false,
      "inputs": [
        {
          "indexed": true,
          "internalType": "address",
          "name": "owner",
          "type": "address"
        },
        {
          "indexed": true,
          "internalType": "address",
          "name": "approved",
          "type": "address"
        },
        {
          "indexed": true,
          "internalType": "uint256",
          "name": "tokenId",
          "type": "uint256"
        }
      ],
      "name": "Approval",
      "type": "event"
    },
    {
      "anonymous": false,
      "inputs": [
        {
          "indexed": true,
          "internalType": "address",
          "name": "owner",
          "type": "address"
        },
        {
          "indexed": true,
          "internalType": "address",
          "name": "operator",
          "type": "address"
        },
        {
          "indexed": false,
          "internalType": "bool",
          "name": "approved",
          "type": "bool"
        }
      ],
      "name": "ApprovalForAll",
      "type": "event"
    },
    {
      "anonymous": false,
      "inputs": [
        {
          "indexed": false,
          "internalType": "uint256",
          "name": "tokenId",
          "type": "uint256"
        }
      ],
      "name": "Minted",
      "type": "event"
    },
    {
      "anonymous": false,
      "inputs": [
        {
          "indexed": true,
          "internalType": "address",
          "name": "previousOwner",
          "type": "address"
        },
        {
          "indexed": true,
          "internalType": "address",
          "name": "newOwner",
          "type": "address"
        }
      ],
      "name": "OwnershipTransferred",
      "type": "event"
    },
    {
      "anonymous": false,
      "inputs": [
        {
          "indexed": true,
          "internalType": "address",
          "name": "from",
          "type": "address"
        },
        {
          "indexed": true,
          "internalType": "address",
          "name": "to",
          "type": "address"
        },
        {
          "indexed": true,
          "internalType": "uint256",
          "name": "tokenId",
          "type": "uint256"
        }
      ],
      "name": "Transfer",
      "type": "event"
    },
    {
      "inputs": [
        {
          "internalType": "address",
          "name": "to",
          "type": "address"
        },
        {
          "internalType": "uint256",
          "name": "tokenId",
          "type": "uint256"
        }
      ],
      "name": "approve",
      "outputs": [],
      "stateMutability": "nonpayable",
      "type": "function"
    },
    {
      "inputs": [],
      "name": "assetMetadata",
      "outputs": [
        {
          "internalType": "string",
          "name": "",
          "type": "string"
        }
      ],
      "stateMutability": "view",
      "type": "function"
    },
    {
      "inputs": [
        {
          "internalType": "address",
          "name": "owner",
          "type": "address"
        }
      ],
      "name": "balanceOf",
      "outputs": [
        {
          "internalType": "uint256",
          "name": "",
          "type": "uint256"
        }
      ],
      "stateMutability": "view",
      "type": "function"
    },
    {
      "inputs": [
        {
          "internalType": "uint256",
          "name": "tokenId",
          "type": "uint256"
        }
      ],
      "name": "getApproved",
      "outputs": [
        {
          "internalType": "address",
          "name": "",
          "type": "address"
        }
      ],
      "stateMutability": "view",
      "type": "function"
    },
    {
      "inputs": [],
      "name": "getAssetMetadata",
      "outputs": [
        {
          "internalType": "string",
          "name": "",
          "type": "string"
        }
      ],
      "stateMutability": "view",
      "type": "function"
    },
    {
      "inputs": [],
      "name": "getMyWalletMints",
      "outputs": [
        {
          "internalType": "uint256",
          "name": "",
          "type": "uint256"
        }
      ],
      "stateMutability": "view",
      "type": "function"
    },
    {
      "inputs": [
        {
          "internalType": "address",
          "name": "owner",
          "type": "address"
        },
        {
          "internalType": "address",
          "name": "operator",
          "type": "address"
        }
      ],
      "name": "isApprovedForAll",
      "outputs": [
        {
          "internalType": "bool",
          "name": "",
          "type": "bool"
        }
      ],
      "stateMutability": "view",
      "type": "function"
    },
    {
      "inputs": [],
      "name": "maxPerWallet",
      "outputs": [
        {
          "internalType": "uint256",
          "name": "",
          "type": "uint256"
        }
      ],
      "stateMutability": "view",
      "type": "function"
    },
    {
      "inputs": [],
      "name": "mintPrice",
      "outputs": [
        {
          "internalType": "uint256",
          "name": "",
          "type": "uint256"
        }
      ],
      "stateMutability": "view",
      "type": "function"
    },
    {
      "inputs": [],
      "name": "mintToken",
      "outputs": [],
      "stateMutability": "payable",
      "type": "function"
    },
    {
      "inputs": [],
      "name": "name",
      "outputs": [
        {
          "internalType": "string",
          "name": "",
          "type": "string"
        }
      ],
      "stateMutability": "view",
      "type": "function"
    },
    {
      "inputs": [],
      "name": "owner",
      "outputs": [
        {
          "internalType": "address",
          "name": "",
          "type": "address"
        }
      ],
      "stateMutability": "view",
      "type": "function"
    },
    {
      "inputs": [
        {
          "internalType": "uint256",
          "name": "tokenId",
          "type": "uint256"
        }
      ],
      "name": "ownerOf",
      "outputs": [
        {
          "internalType": "address",
          "name": "",
          "type": "address"
        }
      ],
      "stateMutability": "view",
      "type": "function"
    },
    {
      "inputs": [],
      "name": "renounceOwnership",
      "outputs": [],
      "stateMutability": "nonpayable",
      "type": "function"
    },
    {
      "inputs": [
        {
          "internalType": "address",
          "name": "from",
          "type": "address"
        },
        {
          "internalType": "address",
          "name": "to",
          "type": "address"
        },
        {
          "internalType": "uint256",
          "name": "tokenId",
          "type": "uint256"
        }
      ],
      "name": "safeTransferFrom",
      "outputs": [],
      "stateMutability": "nonpayable",
      "type": "function"
    },
    {
      "inputs": [
        {
          "internalType": "address",
          "name": "from",
          "type": "address"
        },
        {
          "internalType": "address",
          "name": "to",
          "type": "address"
        },
        {
          "internalType": "uint256",
          "name": "tokenId",
          "type": "uint256"
        },
        {
          "internalType": "bytes",
          "name": "data",
          "type": "bytes"
        }
      ],
      "name": "safeTransferFrom",
      "outputs": [],
      "stateMutability": "nonpayable",
      "type": "function"
    },
    {
      "inputs": [
        {
          "internalType": "address",
          "name": "operator",
          "type": "address"
        },
        {
          "internalType": "bool",
          "name": "approved",
          "type": "bool"
        }
      ],
      "name": "setApprovalForAll",
      "outputs": [],
      "stateMutability": "nonpayable",
      "type": "function"
    },
    {
      "inputs": [
        {
          "internalType": "bytes4",
          "name": "interfaceId",
          "type": "bytes4"
        }
      ],
      "name": "supportsInterface",
      "outputs": [
        {
          "internalType": "bool",
          "name": "",
          "type": "bool"
        }
      ],
      "stateMutability": "view",
      "type": "function"
    },
    {
      "inputs": [],
      "name": "symbol",
      "outputs": [
        {
          "internalType": "string",
          "name": "",
          "type": "string"
        }
      ],
      "stateMutability": "view",
      "type": "function"
    },
    {
      "inputs": [
        {
          "internalType": "uint256",
          "name": "tokenId",
          "type": "uint256"
        }
      ],
      "name": "tokenURI",
      "outputs": [
        {
          "internalType": "string",
          "name": "",
          "type": "string"
        }
      ],
      "stateMutability": "view",
      "type": "function"
    },
    {
      "inputs": [],
      "name": "totalMints",
      "outputs": [
        {
          "internalType": "uint256",
          "name": "",
          "type": "uint256"
        }
      ],
      "stateMutability": "view",
      "type": "function"
    },
    {
      "inputs": [
        {
          "internalType": "address",
          "name": "from",
          "type": "address"
        },
        {
          "internalType": "address",
          "name": "to",
          "type": "address"
        },
        {
          "internalType": "uint256",
          "name": "tokenId",
          "type": "uint256"
        }
      ],
      "name": "transferFrom",
      "outputs": [],
      "stateMutability": "nonpayable",
      "type": "function"
    },
    {
      "inputs": [
        {
          "internalType": "address",
          "name": "newOwner",
          "type": "address"
        }
      ],
      "name": "transferOwnership",
      "outputs": [],
      "stateMutability": "nonpayable",
      "type": "function"
    },
    {
      "inputs": [
        {
          "internalType": "string",
          "name": "_newAssetMetadata",
          "type": "string"
        }
      ],
      "name": "updateMetadata",
      "outputs": [],
      "stateMutability": "nonpayable",
      "type": "function"
    },
    {
      "inputs": [
        {
          "internalType": "address",
          "name": "",
          "type": "address"
        }
      ],
      "name": "walletMints",
      "outputs": [
        {
          "internalType": "uint256",
          "name": "",
          "type": "uint256"
        }
      ],
      "stateMutability": "view",
      "type": "function"
    },
    {
      "inputs": [],
      "name": "withdrawFunds",
      "outputs": [],
      "stateMutability": "nonpayable",
      "type": "function"
    }
  ],
  "bytecode": "0x60806040526000600755655af3107a400060085560016009556040518060600160405280603581526020016200359060359139600a9081620000429190620004b1565b503480156200005057600080fd5b50336040518060400160405280600981526020017f43617665506172747900000000000000000000000000000000000000000000008152506040518060400160405280600381526020017f43505900000000000000000000000000000000000000000000000000000000008152508160009081620000cf9190620004b1565b508060019081620000e19190620004b1565b505050600073ffffffffffffffffffffffffffffffffffffffff168173ffffffffffffffffffffffffffffffffffffffff1603620001595760006040517f1e4fbdf7000000000000000000000000000000000000000000000000000000008152600401620001509190620005dd565b60405180910390fd5b6200016a816200017160201b60201c565b50620005fa565b6000600660009054906101000a900473ffffffffffffffffffffffffffffffffffffffff16905081600660006101000a81548173ffffffffffffffffffffffffffffffffffffffff021916908373ffffffffffffffffffffffffffffffffffffffff1602179055508173ffffffffffffffffffffffffffffffffffffffff168173ffffffffffffffffffffffffffffffffffffffff167f8be0079c531659141344cd1fd0a4f28419497f9722a3daafe3b4186f6b6457e060405160405180910390a35050565b600081519050919050565b7f4e487b7100000000000000000000000000000000000000000000000000000000600052604160045260246000fd5b7f4e487b7100000000000000000000000000000000000000000000000000000000600052602260045260246000fd5b60006002820490506001821680620002b957607f821691505b602082108103620002cf57620002ce62000271565b5b50919050565b60008190508160005260206000209050919050565b60006020601f8301049050919050565b600082821b905092915050565b600060088302620003397fffffffffffffffffffffffffffffffffffffffffffffffffffffffffffffffff82620002fa565b620003458683620002fa565b95508019841693508086168417925050509392505050565b6000819050919050565b6000819050919050565b6000620003926200038c62000386846200035d565b62000367565b6200035d565b9050919050565b6000819050919050565b620003ae8362000371565b620003c6620003bd8262000399565b84845462000307565b825550505050565b600090565b620003dd620003ce565b620003ea818484620003a3565b505050565b5b81811015620004125762000406600082620003d3565b600181019050620003f0565b5050565b601f82111562000461576200042b81620002d5565b6200043684620002ea565b8101602085101562000446578190505b6200045e6200045585620002ea565b830182620003ef565b50505b505050565b600082821c905092915050565b6000620004866000198460080262000466565b1980831691505092915050565b6000620004a1838362000473565b9150826002028217905092915050565b620004bc8262000237565b67ffffffffffffffff811115620004d857620004d762000242565b5b620004e48254620002a0565b620004f182828562000416565b600060209050601f83116001811462000529576000841562000514578287015190505b62000520858262000493565b86555062000590565b601f1984166200053986620002d5565b60005b8281101562000563578489015182556001820191506020850194506020810190506200053c565b868310156200058357848901516200057f601f89168262000473565b8355505b6001600288020188555050505b505050505050565b600073ffffffffffffffffffffffffffffffffffffffff82169050919050565b6000620005c58262000598565b9050919050565b620005d781620005b8565b82525050565b6000602082019050620005f46000830184620005cc565b92915050565b612f86806200060a6000396000f3fe6080604052600436106101815760003560e01c806370a08231116100d1578063a22cb4651161008a578063ddd71ede11610064578063ddd71ede1461053d578063e985e9c514610568578063f0293fd3146105a5578063f2fde38b146105e257610181565b8063a22cb465146104ae578063b88d4fde146104d7578063c87b56dd1461050057610181565b806370a08231146103b0578063715018a6146103ed57806388662de9146104045780638da5cb5b1461042f578063918b5be11461045a57806395d89b411461048357610181565b806323b872dd1161013e578063453c231011610118578063453c2310146102f2578063505168081461031d5780636352211e146103485780636817c76c1461038557610181565b806323b872dd1461028957806324600fc3146102b257806342842e0e146102c957610181565b806301ffc9a71461018657806306fdde03146101c3578063081812fc146101ee578063095ea7b31461022b5780631f21bfbf146102545780632004ffd91461027f575b600080fd5b34801561019257600080fd5b506101ad60048036038101906101a8919061213e565b61060b565b6040516101ba9190612186565b60405180910390f35b3480156101cf57600080fd5b506101d86106ed565b6040516101e59190612231565b60405180910390f35b3480156101fa57600080fd5b5061021560048036038101906102109190612289565b61077f565b60405161022291906122f7565b60405180910390f35b34801561023757600080fd5b50610252600480360381019061024d919061233e565b61079b565b005b34801561026057600080fd5b506102696107b1565b604051610276919061238d565b60405180910390f35b6102876107b7565b005b34801561029557600080fd5b506102b060048036038101906102ab91906123a8565b6108e1565b005b3480156102be57600080fd5b506102c76109e3565b005b3480156102d557600080fd5b506102f060048036038101906102eb91906123a8565b610aa1565b005b3480156102fe57600080fd5b50610307610ac1565b604051610314919061238d565b60405180910390f35b34801561032957600080fd5b50610332610ac7565b60405161033f919061238d565b60405180910390f35b34801561035457600080fd5b5061036f600480360381019061036a9190612289565b610b0e565b60405161037c91906122f7565b60405180910390f35b34801561039157600080fd5b5061039a610b20565b6040516103a7919061238d565b60405180910390f35b3480156103bc57600080fd5b506103d760048036038101906103d291906123fb565b610b26565b6040516103e4919061238d565b60405180910390f35b3480156103f957600080fd5b50610402610be0565b005b34801561041057600080fd5b50610419610bf4565b6040516104269190612231565b60405180910390f35b34801561043b57600080fd5b50610444610c82565b60405161045191906122f7565b60405180910390f35b34801561046657600080fd5b50610481600480360381019061047c919061255d565b610cac565b005b34801561048f57600080fd5b50610498610d0f565b6040516104a59190612231565b60405180910390f35b3480156104ba57600080fd5b506104d560048036038101906104d091906125d2565b610da1565b005b3480156104e357600080fd5b506104fe60048036038101906104f991906126b3565b610db7565b005b34801561050c57600080fd5b5061052760048036038101906105229190612289565b610dd4565b6040516105349190612231565b60405180910390f35b34801561054957600080fd5b50610552610e3d565b60405161055f9190612231565b60405180910390f35b34801561057457600080fd5b5061058f600480360381019061058a9190612736565b610ed7565b60405161059c9190612186565b60405180910390f35b3480156105b157600080fd5b506105cc60048036038101906105c791906123fb565b610f6b565b6040516105d9919061238d565b60405180910390f35b3480156105ee57600080fd5b50610609600480360381019061060491906123fb565b610f83565b005b60007f80ac58cd000000000000000000000000000000000000000000000000000000007bffffffffffffffffffffffffffffffffffffffffffffffffffffffff1916827bffffffffffffffffffffffffffffffffffffffffffffffffffffffff191614806106d657507f5b5e139f000000000000000000000000000000000000000000000000000000007bffffffffffffffffffffffffffffffffffffffffffffffffffffffff1916827bffffffffffffffffffffffffffffffffffffffffffffffffffffffff1916145b806106e657506106e582611009565b5b9050919050565b6060600080546106fc906127a5565b80601f0160208091040260200160405190810160405280929190818152602001828054610728906127a5565b80156107755780601f1061074a57610100808354040283529160200191610775565b820191906000526020600020905b81548152906001019060200180831161075857829003601f168201915b5050505050905090565b600061078a82611073565b50610794826110fb565b9050919050565b6107ad82826107a8611138565b611140565b5050565b60075481565b34600854146107fb576040517f08c379a00000000000000000000000000000000000000000000000000000000081526004016107f290612822565b60405180910390fd5b600954600b60003373ffffffffffffffffffffffffffffffffffffffff1673ffffffffffffffffffffffffffffffffffffffff16815260200190815260200160002054111561087f576040517f08c379a00000000000000000000000000000000000000000000000000000000081526004016108769061288e565b60405180910390fd5b6001600b60003373ffffffffffffffffffffffffffffffffffffffff1673ffffffffffffffffffffffffffffffffffffffff16815260200190815260200160002060008282546108cf91906128dd565b925050819055506108df33611152565b565b600073ffffffffffffffffffffffffffffffffffffffff168273ffffffffffffffffffffffffffffffffffffffff16036109535760006040517f64a0ae9200000000000000000000000000000000000000000000000000000000815260040161094a91906122f7565b60405180910390fd5b60006109678383610962611138565b61117f565b90508373ffffffffffffffffffffffffffffffffffffffff168173ffffffffffffffffffffffffffffffffffffffff16146109dd578382826040517f64283d7b0000000000000000000000000000000000000000000000000000000081526004016109d493929190612911565b60405180910390fd5b50505050565b6109eb611399565b60006109f5610c82565b73ffffffffffffffffffffffffffffffffffffffff1647604051610a1890612979565b60006040518083038185875af1925050503d8060008114610a55576040519150601f19603f3d011682016040523d82523d6000602084013e610a5a565b606091505b5050905080610a9e576040517f08c379a0000000000000000000000000000000000000000000000000000000008152600401610a95906129da565b60405180910390fd5b50565b610abc83838360405180602001604052806000815250610db7565b505050565b60095481565b6000600b60003373ffffffffffffffffffffffffffffffffffffffff1673ffffffffffffffffffffffffffffffffffffffff16815260200190815260200160002054905090565b6000610b1982611073565b9050919050565b60085481565b60008073ffffffffffffffffffffffffffffffffffffffff168273ffffffffffffffffffffffffffffffffffffffff1603610b995760006040517f89c62b64000000000000000000000000000000000000000000000000000000008152600401610b9091906122f7565b60405180910390fd5b600360008373ffffffffffffffffffffffffffffffffffffffff1673ffffffffffffffffffffffffffffffffffffffff168152602001908152602001600020549050919050565b610be8611399565b610bf26000611420565b565b600a8054610c01906127a5565b80601f0160208091040260200160405190810160405280929190818152602001828054610c2d906127a5565b8015610c7a5780601f10610c4f57610100808354040283529160200191610c7a565b820191906000526020600020905b815481529060010190602001808311610c5d57829003601f168201915b505050505081565b6000600660009054906101000a900473ffffffffffffffffffffffffffffffffffffffff16905090565b610cb4611399565b610cbd816114e6565b610cfc576040517f08c379a0000000000000000000000000000000000000000000000000000000008152600401610cf390612a6c565b60405180910390fd5b80600a9081610d0b9190612c38565b5050565b606060018054610d1e906127a5565b80601f0160208091040260200160405190810160405280929190818152602001828054610d4a906127a5565b8015610d975780601f10610d6c57610100808354040283529160200191610d97565b820191906000526020600020905b815481529060010190602001808311610d7a57829003601f168201915b5050505050905090565b610db3610dac611138565b838361163f565b5050565b610dc28484846108e1565b610dce848484846117ae565b50505050565b6060610ddf82611073565b506000610dea611965565b90506000815111610e0a5760405180602001604052806000815250610e35565b80610e14846119f7565b604051602001610e25929190612d46565b6040516020818303038152906040525b915050919050565b6060610e47611399565b600a8054610e54906127a5565b80601f0160208091040260200160405190810160405280929190818152602001828054610e80906127a5565b8015610ecd5780601f10610ea257610100808354040283529160200191610ecd565b820191906000526020600020905b815481529060010190602001808311610eb057829003601f168201915b5050505050905090565b6000600560008473ffffffffffffffffffffffffffffffffffffffff1673ffffffffffffffffffffffffffffffffffffffff16815260200190815260200160002060008373ffffffffffffffffffffffffffffffffffffffff1673ffffffffffffffffffffffffffffffffffffffff16815260200190815260200160002060009054906101000a900460ff16905092915050565b600b6020528060005260406000206000915090505481565b610f8b611399565b600073ffffffffffffffffffffffffffffffffffffffff168173ffffffffffffffffffffffffffffffffffffffff1603610ffd5760006040517f1e4fbdf7000000000000000000000000000000000000000000000000000000008152600401610ff491906122f7565b60405180910390fd5b61100681611420565b50565b60007f01ffc9a7000000000000000000000000000000000000000000000000000000007bffffffffffffffffffffffffffffffffffffffffffffffffffffffff1916827bffffffffffffffffffffffffffffffffffffffffffffffffffffffff1916149050919050565b60008061107f83611ac5565b9050600073ffffffffffffffffffffffffffffffffffffffff168173ffffffffffffffffffffffffffffffffffffffff16036110f257826040517f7e2732890000000000000000000000000000000000000000000000000000000081526004016110e9919061238d565b60405180910390fd5b80915050919050565b60006004600083815260200190815260200160002060009054906101000a900473ffffffffffffffffffffffffffffffffffffffff169050919050565b600033905090565b61114d8383836001611b02565b505050565b600060075490506007600081548092919061116c90612d6a565b919050555061117b8282611cc7565b5050565b60008061118b84611ac5565b9050600073ffffffffffffffffffffffffffffffffffffffff168373ffffffffffffffffffffffffffffffffffffffff16146111cd576111cc818486611ce5565b5b600073ffffffffffffffffffffffffffffffffffffffff168173ffffffffffffffffffffffffffffffffffffffff161461125e5761120f600085600080611b02565b6001600360008373ffffffffffffffffffffffffffffffffffffffff1673ffffffffffffffffffffffffffffffffffffffff168152602001908152602001600020600082825403925050819055505b600073ffffffffffffffffffffffffffffffffffffffff168573ffffffffffffffffffffffffffffffffffffffff16146112e1576001600360008773ffffffffffffffffffffffffffffffffffffffff1673ffffffffffffffffffffffffffffffffffffffff168152602001908152602001600020600082825401925050819055505b846002600086815260200190815260200160002060006101000a81548173ffffffffffffffffffffffffffffffffffffffff021916908373ffffffffffffffffffffffffffffffffffffffff160217905550838573ffffffffffffffffffffffffffffffffffffffff168273ffffffffffffffffffffffffffffffffffffffff167fddf252ad1be2c89b69c2b068fc378daa952ba7f163c4a11628f55a4df523b3ef60405160405180910390a4809150509392505050565b6113a1611138565b73ffffffffffffffffffffffffffffffffffffffff166113bf610c82565b73ffffffffffffffffffffffffffffffffffffffff161461141e576113e2611138565b6040517f118cdaa700000000000000000000000000000000000000000000000000000000815260040161141591906122f7565b60405180910390fd5b565b6000600660009054906101000a900473ffffffffffffffffffffffffffffffffffffffff16905081600660006101000a81548173ffffffffffffffffffffffffffffffffffffffff021916908373ffffffffffffffffffffffffffffffffffffffff1602179055508173ffffffffffffffffffffffffffffffffffffffff168173ffffffffffffffffffffffffffffffffffffffff167f8be0079c531659141344cd1fd0a4f28419497f9722a3daafe3b4186f6b6457e060405160405180910390a35050565b60008082905060006040518060400160405280600781526020017f697066733a2f2f00000000000000000000000000000000000000000000000000815250905080518251101561153b5760009250505061163a565b60005b8151835161154c9190612db2565b81116116325760006001905060005b835181101561160a5783818151811061157757611576612de6565b5b602001015160f81c60f81b7effffffffffffffffffffffffffffffffffffffffffffffffffffffffffffff19168582856115b191906128dd565b815181106115c2576115c1612de6565b5b602001015160f81c60f81b7effffffffffffffffffffffffffffffffffffffffffffffffffffffffffffff1916146115fd576000915061160a565b808060010191505061155b565b50801561161e57600194505050505061163a565b50808061162a90612d6a565b91505061153e565b506000925050505b919050565b600073ffffffffffffffffffffffffffffffffffffffff168273ffffffffffffffffffffffffffffffffffffffff16036116b057816040517f5b08ba180000000000000000000000000000000000000000000000000000000081526004016116a791906122f7565b60405180910390fd5b80600560008573ffffffffffffffffffffffffffffffffffffffff1673ffffffffffffffffffffffffffffffffffffffff16815260200190815260200160002060008473ffffffffffffffffffffffffffffffffffffffff1673ffffffffffffffffffffffffffffffffffffffff16815260200190815260200160002060006101000a81548160ff0219169083151502179055508173ffffffffffffffffffffffffffffffffffffffff168373ffffffffffffffffffffffffffffffffffffffff167f17307eab39ab6107e8899845ad3d59bd9653f200f220920489ca2b5937696c31836040516117a19190612186565b60405180910390a3505050565b60008373ffffffffffffffffffffffffffffffffffffffff163b111561195f578273ffffffffffffffffffffffffffffffffffffffff1663150b7a026117f2611138565b8685856040518563ffffffff1660e01b81526004016118149493929190612e6a565b6020604051808303816000875af192505050801561185057506040513d601f19601f8201168201806040525081019061184d9190612ecb565b60015b6118d4573d8060008114611880576040519150601f19603f3d011682016040523d82523d6000602084013e611885565b606091505b5060008151036118cc57836040517f64a0ae920000000000000000000000000000000000000000000000000000000081526004016118c391906122f7565b60405180910390fd5b805181602001fd5b63150b7a0260e01b7bffffffffffffffffffffffffffffffffffffffffffffffffffffffff1916817bffffffffffffffffffffffffffffffffffffffffffffffffffffffff19161461195d57836040517f64a0ae9200000000000000000000000000000000000000000000000000000000815260040161195491906122f7565b60405180910390fd5b505b50505050565b6060600a8054611974906127a5565b80601f01602080910402602001604051908101604052809291908181526020018280546119a0906127a5565b80156119ed5780601f106119c2576101008083540402835291602001916119ed565b820191906000526020600020905b8154815290600101906020018083116119d057829003601f168201915b5050505050905090565b606060006001611a0684611da9565b01905060008167ffffffffffffffff811115611a2557611a24612432565b5b6040519080825280601f01601f191660200182016040528015611a575781602001600182028036833780820191505090505b509050600082602001820190505b600115611aba578080600190039150507f3031323334353637383961626364656600000000000000000000000000000000600a86061a8153600a8581611aae57611aad612ef8565b5b04945060008503611a65575b819350505050919050565b60006002600083815260200190815260200160002060009054906101000a900473ffffffffffffffffffffffffffffffffffffffff169050919050565b8080611b3b5750600073ffffffffffffffffffffffffffffffffffffffff168273ffffffffffffffffffffffffffffffffffffffff1614155b15611c6f576000611b4b84611073565b9050600073ffffffffffffffffffffffffffffffffffffffff168373ffffffffffffffffffffffffffffffffffffffff1614158015611bb657508273ffffffffffffffffffffffffffffffffffffffff168173ffffffffffffffffffffffffffffffffffffffff1614155b8015611bc95750611bc78184610ed7565b155b15611c0b57826040517fa9fbf51f000000000000000000000000000000000000000000000000000000008152600401611c0291906122f7565b60405180910390fd5b8115611c6d57838573ffffffffffffffffffffffffffffffffffffffff168273ffffffffffffffffffffffffffffffffffffffff167f8c5be1e5ebec7d5bd14f71427d1e84f3dd0314c0f7b2291e5b200ac8c7c3b92560405160405180910390a45b505b836004600085815260200190815260200160002060006101000a81548173ffffffffffffffffffffffffffffffffffffffff021916908373ffffffffffffffffffffffffffffffffffffffff16021790555050505050565b611ce1828260405180602001604052806000815250611efc565b5050565b611cf0838383611f18565b611da457600073ffffffffffffffffffffffffffffffffffffffff168373ffffffffffffffffffffffffffffffffffffffff1603611d6557806040517f7e273289000000000000000000000000000000000000000000000000000000008152600401611d5c919061238d565b60405180910390fd5b81816040517f177e802f000000000000000000000000000000000000000000000000000000008152600401611d9b929190612f27565b60405180910390fd5b505050565b600080600090507a184f03e93ff9f4daa797ed6e38ed64bf6a1f0100000000000000008310611e07577a184f03e93ff9f4daa797ed6e38ed64bf6a1f0100000000000000008381611dfd57611dfc612ef8565b5b0492506040810190505b6d04ee2d6d415b85acef81000000008310611e44576d04ee2d6d415b85acef81000000008381611e3a57611e39612ef8565b5b0492506020810190505b662386f26fc100008310611e7357662386f26fc100008381611e6957611e68612ef8565b5b0492506010810190505b6305f5e1008310611e9c576305f5e1008381611e9257611e91612ef8565b5b0492506008810190505b6127108310611ec1576127108381611eb757611eb6612ef8565b5b0492506004810190505b60648310611ee45760648381611eda57611ed9612ef8565b5b0492506002810190505b600a8310611ef3576001810190505b80915050919050565b611f068383611fd9565b611f1360008484846117ae565b505050565b60008073ffffffffffffffffffffffffffffffffffffffff168373ffffffffffffffffffffffffffffffffffffffff1614158015611fd057508273ffffffffffffffffffffffffffffffffffffffff168473ffffffffffffffffffffffffffffffffffffffff161480611f915750611f908484610ed7565b5b80611fcf57508273ffffffffffffffffffffffffffffffffffffffff16611fb7836110fb565b73ffffffffffffffffffffffffffffffffffffffff16145b5b90509392505050565b600073ffffffffffffffffffffffffffffffffffffffff168273ffffffffffffffffffffffffffffffffffffffff160361204b5760006040517f64a0ae9200000000000000000000000000000000000000000000000000000000815260040161204291906122f7565b60405180910390fd5b60006120598383600061117f565b9050600073ffffffffffffffffffffffffffffffffffffffff168173ffffffffffffffffffffffffffffffffffffffff16146120cd5760006040517f73c6ac6e0000000000000000000000000000000000000000000000000000000081526004016120c491906122f7565b60405180910390fd5b505050565b6000604051905090565b600080fd5b600080fd5b60007fffffffff0000000000000000000000000000000000000000000000000000000082169050919050565b61211b816120e6565b811461212657600080fd5b50565b60008135905061213881612112565b92915050565b600060208284031215612154576121536120dc565b5b600061216284828501612129565b91505092915050565b60008115159050919050565b6121808161216b565b82525050565b600060208201905061219b6000830184612177565b92915050565b600081519050919050565b600082825260208201905092915050565b60005b838110156121db5780820151818401526020810190506121c0565b60008484015250505050565b6000601f19601f8301169050919050565b6000612203826121a1565b61220d81856121ac565b935061221d8185602086016121bd565b612226816121e7565b840191505092915050565b6000602082019050818103600083015261224b81846121f8565b905092915050565b6000819050919050565b61226681612253565b811461227157600080fd5b50565b6000813590506122838161225d565b92915050565b60006020828403121561229f5761229e6120dc565b5b60006122ad84828501612274565b91505092915050565b600073ffffffffffffffffffffffffffffffffffffffff82169050919050565b60006122e1826122b6565b9050919050565b6122f1816122d6565b82525050565b600060208201905061230c60008301846122e8565b92915050565b61231b816122d6565b811461232657600080fd5b50565b60008135905061233881612312565b92915050565b60008060408385031215612355576123546120dc565b5b600061236385828601612329565b925050602061237485828601612274565b9150509250929050565b61238781612253565b82525050565b60006020820190506123a2600083018461237e565b92915050565b6000806000606084860312156123c1576123c06120dc565b5b60006123cf86828701612329565b93505060206123e086828701612329565b92505060406123f186828701612274565b9150509250925092565b600060208284031215612411576124106120dc565b5b600061241f84828501612329565b91505092915050565b600080fd5b600080fd5b7f4e487b7100000000000000000000000000000000000000000000000000000000600052604160045260246000fd5b61246a826121e7565b810181811067ffffffffffffffff8211171561248957612488612432565b5b80604052505050565b600061249c6120d2565b90506124a88282612461565b919050565b600067ffffffffffffffff8211156124c8576124c7612432565b5b6124d1826121e7565b9050602081019050919050565b82818337600083830152505050565b60006125006124fb846124ad565b612492565b90508281526020810184848401111561251c5761251b61242d565b5b6125278482856124de565b509392505050565b600082601f83011261254457612543612428565b5b81356125548482602086016124ed565b91505092915050565b600060208284031215612573576125726120dc565b5b600082013567ffffffffffffffff811115612591576125906120e1565b5b61259d8482850161252f565b91505092915050565b6125af8161216b565b81146125ba57600080fd5b50565b6000813590506125cc816125a6565b92915050565b600080604083850312156125e9576125e86120dc565b5b60006125f785828601612329565b9250506020612608858286016125bd565b9150509250929050565b600067ffffffffffffffff82111561262d5761262c612432565b5b612636826121e7565b9050602081019050919050565b600061265661265184612612565b612492565b9050828152602081018484840111156126725761267161242d565b5b61267d8482856124de565b509392505050565b600082601f83011261269a57612699612428565b5b81356126aa848260208601612643565b91505092915050565b600080600080608085870312156126cd576126cc6120dc565b5b60006126db87828801612329565b94505060206126ec87828801612329565b93505060406126fd87828801612274565b925050606085013567ffffffffffffffff81111561271e5761271d6120e1565b5b61272a87828801612685565b91505092959194509250565b6000806040838503121561274d5761274c6120dc565b5b600061275b85828601612329565b925050602061276c85828601612329565b9150509250929050565b7f4e487b7100000000000000000000000000000000000000000000000000000000600052602260045260246000fd5b600060028204905060018216806127bd57607f821691505b6020821081036127d0576127cf612776565b5b50919050565b7f302e3030303120657468657220726571756972656420746f206d696e74000000600082015250565b600061280c601d836121ac565b9150612817826127d6565b602082019050919050565b6000602082019050818103600083015261283b816127ff565b9050919050565b7f6d696e7473207065722077616c6c657420657863656564656400000000000000600082015250565b60006128786019836121ac565b915061288382612842565b602082019050919050565b600060208201905081810360008301526128a78161286b565b9050919050565b7f4e487b7100000000000000000000000000000000000000000000000000000000600052601160045260246000fd5b60006128e882612253565b91506128f383612253565b925082820190508082111561290b5761290a6128ae565b5b92915050565b600060608201905061292660008301866122e8565b612933602083018561237e565b61294060408301846122e8565b949350505050565b600081905092915050565b50565b6000612963600083612948565b915061296e82612953565b600082019050919050565b600061298482612956565b9150819050919050565b7f7769746864726177616c206661696c6564000000000000000000000000000000600082015250565b60006129c46011836121ac565b91506129cf8261298e565b602082019050919050565b600060208201905081810360008301526129f3816129b7565b9050919050565b7f496e76616c6964206173736574206d657461646174613a206d75737420696e6360008201527f6c7564652027697066733a2f2f27000000000000000000000000000000000000602082015250565b6000612a56602e836121ac565b9150612a61826129fa565b604082019050919050565b60006020820190508181036000830152612a8581612a49565b9050919050565b60008190508160005260206000209050919050565b60006020601f8301049050919050565b600082821b905092915050565b600060088302612aee7fffffffffffffffffffffffffffffffffffffffffffffffffffffffffffffffff82612ab1565b612af88683612ab1565b95508019841693508086168417925050509392505050565b6000819050919050565b6000612b35612b30612b2b84612253565b612b10565b612253565b9050919050565b6000819050919050565b612b4f83612b1a565b612b63612b5b82612b3c565b848454612abe565b825550505050565b600090565b612b78612b6b565b612b83818484612b46565b505050565b5b81811015612ba757612b9c600082612b70565b600181019050612b89565b5050565b601f821115612bec57612bbd81612a8c565b612bc684612aa1565b81016020851015612bd5578190505b612be9612be185612aa1565b830182612b88565b50505b505050565b600082821c905092915050565b6000612c0f60001984600802612bf1565b1980831691505092915050565b6000612c288383612bfe565b9150826002028217905092915050565b612c41826121a1565b67ffffffffffffffff811115612c5a57612c59612432565b5b612c6482546127a5565b612c6f828285612bab565b600060209050601f831160018114612ca25760008415612c90578287015190505b612c9a8582612c1c565b865550612d02565b601f198416612cb086612a8c565b60005b82811015612cd857848901518255600182019150602085019450602081019050612cb3565b86831015612cf55784890151612cf1601f891682612bfe565b8355505b6001600288020188555050505b505050505050565b600081905092915050565b6000612d20826121a1565b612d2a8185612d0a565b9350612d3a8185602086016121bd565b80840191505092915050565b6000612d528285612d15565b9150612d5e8284612d15565b91508190509392505050565b6000612d7582612253565b91507fffffffffffffffffffffffffffffffffffffffffffffffffffffffffffffffff8203612da757612da66128ae565b5b600182019050919050565b6000612dbd82612253565b9150612dc883612253565b9250828203905081811115612de057612ddf6128ae565b5b92915050565b7f4e487b7100000000000000000000000000000000000000000000000000000000600052603260045260246000fd5b600081519050919050565b600082825260208201905092915050565b6000612e3c82612e15565b612e468185612e20565b9350612e568185602086016121bd565b612e5f816121e7565b840191505092915050565b6000608082019050612e7f60008301876122e8565b612e8c60208301866122e8565b612e99604083018561237e565b8181036060830152612eab8184612e31565b905095945050505050565b600081519050612ec581612112565b92915050565b600060208284031215612ee157612ee06120dc565b5b6000612eef84828501612eb6565b91505092915050565b7f4e487b7100000000000000000000000000000000000000000000000000000000600052601260045260246000fd5b6000604082019050612f3c60008301856122e8565b612f49602083018461237e565b939250505056fea26469706673582212205b4cd93990ab81df15e53da95fbf535a8703235a2cabb3ac553322a075aec03f64736f6c63430008180033697066733a2f2f516d65586e7968726b4547664b7a515274757379574e464b636a795a784c63553170755276784c6b4b326b546553",
  "linkReferences": {},
  "deployedLinkReferences": {}
}