{
  "_format": "hh-sol-artifact-1",
  "contractName": "FluffyFury",
  "sourceName": "contracts/FluffyFuryNFT.sol",
  "abi": [
    {
      "inputs": [
        {
          "internalType": "string",
          "name": "initialSvg",
          "type": "string"
        }
      ],
      "stateMutability": "nonpayable",
      "type": "constructor"
    },
    {
      "inputs": [
        {
          "internalType": "address",
          "name": "sender",
          "type": "address"
        },
        {
          "internalType": "uint256",
          "name": "tokenId",
          "type": "uint256"
        },
        {
          "internalType": "address",
          "name": "owner",
          "type": "address"
        }
      ],
      "name": "ERC721IncorrectOwner",
      "type": "error"
    },
    {
      "inputs": [
        {
          "internalType": "address",
          "name": "operator",
          "type": "address"
        },
        {
          "internalType": "uint256",
          "name": "tokenId",
          "type": "uint256"
        }
      ],
      "name": "ERC721InsufficientApproval",
      "type": "error"
    },
    {
      "inputs": [
        {
          "internalType": "address",
          "name": "approver",
          "type": "address"
        }
      ],
      "name": "ERC721InvalidApprover",
      "type": "error"
    },
    {
      "inputs": [
        {
          "internalType": "address",
          "name": "operator",
          "type": "address"
        }
      ],
      "name": "ERC721InvalidOperator",
      "type": "error"
    },
    {
      "inputs": [
        {
          "internalType": "address",
          "name": "owner",
          "type": "address"
        }
      ],
      "name": "ERC721InvalidOwner",
      "type": "error"
    },
    {
      "inputs": [
        {
          "internalType": "address",
          "name": "receiver",
          "type": "address"
        }
      ],
      "name": "ERC721InvalidReceiver",
      "type": "error"
    },
    {
      "inputs": [
        {
          "internalType": "address",
          "name": "sender",
          "type": "address"
        }
      ],
      "name": "ERC721InvalidSender",
      "type": "error"
    },
    {
      "inputs": [
        {
          "internalType": "uint256",
          "name": "tokenId",
          "type": "uint256"
        }
      ],
      "name": "ERC721NonexistentToken",
      "type": "error"
    },
    {
      "inputs": [
        {
          "internalType": "address",
          "name": "owner",
          "type": "address"
        }
      ],
      "name": "OwnableInvalidOwner",
      "type": "error"
    },
    {
      "inputs": [
        {
          "internalType": "address",
          "name": "account",
          "type": "address"
        }
      ],
      "name": "OwnableUnauthorizedAccount",
      "type": "error"
    },
    {
      "anonymous": false,
      "inputs": [
        {
          "indexed": true,
          "internalType": "address",
          "name": "owner",
          "type": "address"
        },
        {
          "indexed": true,
          "internalType": "address",
          "name": "approved",
          "type": "address"
        },
        {
          "indexed": true,
          "internalType": "uint256",
          "name": "tokenId",
          "type": "uint256"
        }
      ],
      "name": "Approval",
      "type": "event"
    },
    {
      "anonymous": false,
      "inputs": [
        {
          "indexed": true,
          "internalType": "address",
          "name": "owner",
          "type": "address"
        },
        {
          "indexed": true,
          "internalType": "address",
          "name": "operator",
          "type": "address"
        },
        {
          "indexed": false,
          "internalType": "bool",
          "name": "approved",
          "type": "bool"
        }
      ],
      "name": "ApprovalForAll",
      "type": "event"
    },
    {
      "anonymous": false,
      "inputs": [
        {
          "indexed": false,
          "internalType": "uint256",
          "name": "_fromTokenId",
          "type": "uint256"
        },
        {
          "indexed": false,
          "internalType": "uint256",
          "name": "_toTokenId",
          "type": "uint256"
        }
      ],
      "name": "BatchMetadataUpdate",
      "type": "event"
    },
    {
      "anonymous": false,
      "inputs": [
        {
          "indexed": false,
          "internalType": "uint256",
          "name": "_tokenId",
          "type": "uint256"
        }
      ],
      "name": "MetadataUpdate",
      "type": "event"
    },
    {
      "anonymous": false,
      "inputs": [
        {
          "indexed": false,
          "internalType": "uint256",
          "name": "tokenId",
          "type": "uint256"
        }
      ],
      "name": "Minted",
      "type": "event"
    },
    {
      "anonymous": false,
      "inputs": [
        {
          "indexed": true,
          "internalType": "address",
          "name": "previousOwner",
          "type": "address"
        },
        {
          "indexed": true,
          "internalType": "address",
          "name": "newOwner",
          "type": "address"
        }
      ],
      "name": "OwnershipTransferred",
      "type": "event"
    },
    {
      "anonymous": false,
      "inputs": [
        {
          "indexed": true,
          "internalType": "address",
          "name": "from",
          "type": "address"
        },
        {
          "indexed": true,
          "internalType": "address",
          "name": "to",
          "type": "address"
        },
        {
          "indexed": true,
          "internalType": "uint256",
          "name": "tokenId",
          "type": "uint256"
        }
      ],
      "name": "Transfer",
      "type": "event"
    },
    {
      "inputs": [
        {
          "internalType": "address",
          "name": "to",
          "type": "address"
        },
        {
          "internalType": "uint256",
          "name": "tokenId",
          "type": "uint256"
        }
      ],
      "name": "approve",
      "outputs": [],
      "stateMutability": "nonpayable",
      "type": "function"
    },
    {
      "inputs": [
        {
          "internalType": "address",
          "name": "owner",
          "type": "address"
        }
      ],
      "name": "balanceOf",
      "outputs": [
        {
          "internalType": "uint256",
          "name": "",
          "type": "uint256"
        }
      ],
      "stateMutability": "view",
      "type": "function"
    },
    {
      "inputs": [
        {
          "internalType": "string",
          "name": "imageURI",
          "type": "string"
        }
      ],
      "name": "formatTokenURI",
      "outputs": [
        {
          "internalType": "string",
          "name": "",
          "type": "string"
        }
      ],
      "stateMutability": "pure",
      "type": "function"
    },
    {
      "inputs": [
        {
          "internalType": "uint256",
          "name": "tokenId",
          "type": "uint256"
        }
      ],
      "name": "getApproved",
      "outputs": [
        {
          "internalType": "address",
          "name": "",
          "type": "address"
        }
      ],
      "stateMutability": "view",
      "type": "function"
    },
    {
      "inputs": [
        {
          "internalType": "address",
          "name": "owner",
          "type": "address"
        },
        {
          "internalType": "address",
          "name": "operator",
          "type": "address"
        }
      ],
      "name": "isApprovedForAll",
      "outputs": [
        {
          "internalType": "bool",
          "name": "",
          "type": "bool"
        }
      ],
      "stateMutability": "view",
      "type": "function"
    },
    {
      "inputs": [],
      "name": "mint",
      "outputs": [],
      "stateMutability": "payable",
      "type": "function"
    },
    {
      "inputs": [],
      "name": "mintPrice",
      "outputs": [
        {
          "internalType": "uint256",
          "name": "",
          "type": "uint256"
        }
      ],
      "stateMutability": "view",
      "type": "function"
    },
    {
      "inputs": [],
      "name": "name",
      "outputs": [
        {
          "internalType": "string",
          "name": "",
          "type": "string"
        }
      ],
      "stateMutability": "view",
      "type": "function"
    },
    {
      "inputs": [],
      "name": "owner",
      "outputs": [
        {
          "internalType": "address",
          "name": "",
          "type": "address"
        }
      ],
      "stateMutability": "view",
      "type": "function"
    },
    {
      "inputs": [
        {
          "internalType": "uint256",
          "name": "tokenId",
          "type": "uint256"
        }
      ],
      "name": "ownerOf",
      "outputs": [
        {
          "internalType": "address",
          "name": "",
          "type": "address"
        }
      ],
      "stateMutability": "view",
      "type": "function"
    },
    {
      "inputs": [],
      "name": "renounceOwnership",
      "outputs": [],
      "stateMutability": "nonpayable",
      "type": "function"
    },
    {
      "inputs": [
        {
          "internalType": "address",
          "name": "from",
          "type": "address"
        },
        {
          "internalType": "address",
          "name": "to",
          "type": "address"
        },
        {
          "internalType": "uint256",
          "name": "tokenId",
          "type": "uint256"
        }
      ],
      "name": "safeTransferFrom",
      "outputs": [],
      "stateMutability": "nonpayable",
      "type": "function"
    },
    {
      "inputs": [
        {
          "internalType": "address",
          "name": "from",
          "type": "address"
        },
        {
          "internalType": "address",
          "name": "to",
          "type": "address"
        },
        {
          "internalType": "uint256",
          "name": "tokenId",
          "type": "uint256"
        },
        {
          "internalType": "bytes",
          "name": "data",
          "type": "bytes"
        }
      ],
      "name": "safeTransferFrom",
      "outputs": [],
      "stateMutability": "nonpayable",
      "type": "function"
    },
    {
      "inputs": [
        {
          "internalType": "address",
          "name": "operator",
          "type": "address"
        },
        {
          "internalType": "bool",
          "name": "approved",
          "type": "bool"
        }
      ],
      "name": "setApprovalForAll",
      "outputs": [],
      "stateMutability": "nonpayable",
      "type": "function"
    },
    {
      "inputs": [
        {
          "internalType": "bytes4",
          "name": "interfaceId",
          "type": "bytes4"
        }
      ],
      "name": "supportsInterface",
      "outputs": [
        {
          "internalType": "bool",
          "name": "",
          "type": "bool"
        }
      ],
      "stateMutability": "view",
      "type": "function"
    },
    {
      "inputs": [],
      "name": "svgData",
      "outputs": [
        {
          "internalType": "string",
          "name": "",
          "type": "string"
        }
      ],
      "stateMutability": "view",
      "type": "function"
    },
    {
      "inputs": [
        {
          "internalType": "string",
          "name": "svg",
          "type": "string"
        }
      ],
      "name": "svgToImageURI",
      "outputs": [
        {
          "internalType": "string",
          "name": "",
          "type": "string"
        }
      ],
      "stateMutability": "pure",
      "type": "function"
    },
    {
      "inputs": [],
      "name": "symbol",
      "outputs": [
        {
          "internalType": "string",
          "name": "",
          "type": "string"
        }
      ],
      "stateMutability": "view",
      "type": "function"
    },
    {
      "inputs": [
        {
          "internalType": "uint256",
          "name": "tokenId",
          "type": "uint256"
        }
      ],
      "name": "tokenURI",
      "outputs": [
        {
          "internalType": "string",
          "name": "",
          "type": "string"
        }
      ],
      "stateMutability": "view",
      "type": "function"
    },
    {
      "inputs": [
        {
          "internalType": "address",
          "name": "from",
          "type": "address"
        },
        {
          "internalType": "address",
          "name": "to",
          "type": "address"
        },
        {
          "internalType": "uint256",
          "name": "tokenId",
          "type": "uint256"
        }
      ],
      "name": "transferFrom",
      "outputs": [],
      "stateMutability": "nonpayable",
      "type": "function"
    },
    {
      "inputs": [
        {
          "internalType": "address",
          "name": "newOwner",
          "type": "address"
        }
      ],
      "name": "transferOwnership",
      "outputs": [],
      "stateMutability": "nonpayable",
      "type": "function"
    },
    {
      "inputs": [
        {
          "internalType": "string",
          "name": "_newSvg",
          "type": "string"
        }
      ],
      "name": "updateSVG",
      "outputs": [],
      "stateMutability": "nonpayable",
      "type": "function"
    },
    {
      "inputs": [],
      "name": "withdrawFunds",
      "outputs": [],
      "stateMutability": "nonpayable",
      "type": "function"
    },
    {
      "stateMutability": "payable",
      "type": "receive"
    }
  ],
  "bytecode": "0x6080604052655af3107a40006009553480156200001b57600080fd5b5060405162003cf938038062003cf983398181016040528101906200004191906200045d565b336040518060400160405280600a81526020017f466c7566667946757279000000000000000000000000000000000000000000008152506040518060400160405280600381526020017f46465900000000000000000000000000000000000000000000000000000000008152508160009081620000bf9190620006f9565b508060019081620000d19190620006f9565b505050600073ffffffffffffffffffffffffffffffffffffffff168173ffffffffffffffffffffffffffffffffffffffff1603620001495760006040517f1e4fbdf700000000000000000000000000000000000000000000000000000000815260040162000140919062000825565b60405180910390fd5b6200015a816200020460201b60201c565b506000815111620001a2576040517f08c379a00000000000000000000000000000000000000000000000000000000081526004016200019990620008a3565b60405180910390fd5b61138881511115620001eb576040517f08c379a0000000000000000000000000000000000000000000000000000000008152600401620001e29062000915565b60405180910390fd5b80600a9081620001fc9190620006f9565b505062000937565b6000600760009054906101000a900473ffffffffffffffffffffffffffffffffffffffff16905081600760006101000a81548173ffffffffffffffffffffffffffffffffffffffff021916908373ffffffffffffffffffffffffffffffffffffffff1602179055508173ffffffffffffffffffffffffffffffffffffffff168173ffffffffffffffffffffffffffffffffffffffff167f8be0079c531659141344cd1fd0a4f28419497f9722a3daafe3b4186f6b6457e060405160405180910390a35050565b6000604051905090565b600080fd5b600080fd5b600080fd5b600080fd5b6000601f19601f8301169050919050565b7f4e487b7100000000000000000000000000000000000000000000000000000000600052604160045260246000fd5b6200033382620002e8565b810181811067ffffffffffffffff82111715620003555762000354620002f9565b5b80604052505050565b60006200036a620002ca565b905062000378828262000328565b919050565b600067ffffffffffffffff8211156200039b576200039a620002f9565b5b620003a682620002e8565b9050602081019050919050565b60005b83811015620003d3578082015181840152602081019050620003b6565b60008484015250505050565b6000620003f6620003f0846200037d565b6200035e565b905082815260208101848484011115620004155762000414620002e3565b5b62000422848285620003b3565b509392505050565b600082601f830112620004425762000441620002de565b5b815162000454848260208601620003df565b91505092915050565b600060208284031215620004765762000475620002d4565b5b600082015167ffffffffffffffff811115620004975762000496620002d9565b5b620004a5848285016200042a565b91505092915050565b600081519050919050565b7f4e487b7100000000000000000000000000000000000000000000000000000000600052602260045260246000fd5b600060028204905060018216806200050157607f821691505b602082108103620005175762000516620004b9565b5b50919050565b60008190508160005260206000209050919050565b60006020601f8301049050919050565b600082821b905092915050565b600060088302620005817fffffffffffffffffffffffffffffffffffffffffffffffffffffffffffffffff8262000542565b6200058d868362000542565b95508019841693508086168417925050509392505050565b6000819050919050565b6000819050919050565b6000620005da620005d4620005ce84620005a5565b620005af565b620005a5565b9050919050565b6000819050919050565b620005f683620005b9565b6200060e6200060582620005e1565b8484546200054f565b825550505050565b600090565b6200062562000616565b62000632818484620005eb565b505050565b5b818110156200065a576200064e6000826200061b565b60018101905062000638565b5050565b601f821115620006a95762000673816200051d565b6200067e8462000532565b810160208510156200068e578190505b620006a66200069d8562000532565b83018262000637565b50505b505050565b600082821c905092915050565b6000620006ce60001984600802620006ae565b1980831691505092915050565b6000620006e98383620006bb565b9150826002028217905092915050565b6200070482620004ae565b67ffffffffffffffff81111562000720576200071f620002f9565b5b6200072c8254620004e8565b620007398282856200065e565b600060209050601f8311600181146200077157600084156200075c578287015190505b620007688582620006db565b865550620007d8565b601f19841662000781866200051d565b60005b82811015620007ab5784890151825560018201915060208501945060208101905062000784565b86831015620007cb5784890151620007c7601f891682620006bb565b8355505b6001600288020188555050505b505050505050565b600073ffffffffffffffffffffffffffffffffffffffff82169050919050565b60006200080d82620007e0565b9050919050565b6200081f8162000800565b82525050565b60006020820190506200083c600083018462000814565b92915050565b600082825260208201905092915050565b7f53564720646174612063616e6e6f7420626520656d7074790000000000000000600082015250565b60006200088b60188362000842565b9150620008988262000853565b602082019050919050565b60006020820190508181036000830152620008be816200087c565b9050919050565b7f535647206461746120746f6f206c617267650000000000000000000000000000600082015250565b6000620008fd60128362000842565b91506200090a82620008c5565b602082019050919050565b600060208201905081810360008301526200093081620008ee565b9050919050565b6133b280620009476000396000f3fe6080604052600436106101445760003560e01c806370a08231116100b6578063a31e06da1161006f578063a31e06da14610446578063a52db60d14610471578063b88d4fde1461049a578063c87b56dd146104c3578063e985e9c514610500578063f2fde38b1461053d5761014b565b806370a0823114610336578063715018a61461037357806371aee1931461038a5780638da5cb5b146103c757806395d89b41146103f2578063a22cb4651461041d5761014b565b806323b872dd1161010857806323b872dd1461022857806324600fc31461025157806330d871c61461026857806342842e0e146102a55780636352211e146102ce5780636817c76c1461030b5761014b565b806301ffc9a71461015057806306fdde031461018d578063081812fc146101b8578063095ea7b3146101f55780631249c58b1461021e5761014b565b3661014b57005b600080fd5b34801561015c57600080fd5b506101776004803603810190610172919061229d565b610566565b60405161018491906122e5565b60405180910390f35b34801561019957600080fd5b506101a26105c7565b6040516101af9190612390565b60405180910390f35b3480156101c457600080fd5b506101df60048036038101906101da91906123e8565b610659565b6040516101ec9190612456565b60405180910390f35b34801561020157600080fd5b5061021c6004803603810190610217919061249d565b610675565b005b61022661068b565b005b34801561023457600080fd5b5061024f600480360381019061024a91906124dd565b6107e2565b005b34801561025d57600080fd5b506102666108e4565b005b34801561027457600080fd5b5061028f600480360381019061028a9190612665565b6109eb565b60405161029c9190612390565b60405180910390f35b3480156102b157600080fd5b506102cc60048036038101906102c791906124dd565b610a5f565b005b3480156102da57600080fd5b506102f560048036038101906102f091906123e8565b610a7f565b6040516103029190612456565b60405180910390f35b34801561031757600080fd5b50610320610a91565b60405161032d91906126bd565b60405180910390f35b34801561034257600080fd5b5061035d600480360381019061035891906126d8565b610a97565b60405161036a91906126bd565b60405180910390f35b34801561037f57600080fd5b50610388610b51565b005b34801561039657600080fd5b506103b160048036038101906103ac9190612665565b610b65565b6040516103be9190612390565b60405180910390f35b3480156103d357600080fd5b506103dc610bb5565b6040516103e99190612456565b60405180910390f35b3480156103fe57600080fd5b50610407610bdf565b6040516104149190612390565b60405180910390f35b34801561042957600080fd5b50610444600480360381019061043f9190612731565b610c71565b005b34801561045257600080fd5b5061045b610c87565b6040516104689190612390565b60405180910390f35b34801561047d57600080fd5b5061049860048036038101906104939190612665565b610d15565b005b3480156104a657600080fd5b506104c160048036038101906104bc9190612812565b610dba565b005b3480156104cf57600080fd5b506104ea60048036038101906104e591906123e8565b610dd7565b6040516104f79190612390565b60405180910390f35b34801561050c57600080fd5b5061052760048036038101906105229190612895565b610eea565b60405161053491906122e5565b60405180910390f35b34801561054957600080fd5b50610564600480360381019061055f91906126d8565b610f7e565b005b6000634906490660e01b7bffffffffffffffffffffffffffffffffffffffffffffffffffffffff1916827bffffffffffffffffffffffffffffffffffffffffffffffffffffffff191614806105c057506105bf82611001565b5b9050919050565b6060600080546105d690612904565b80601f016020809104026020016040519081016040528092919081815260200182805461060290612904565b801561064f5780601f106106245761010080835404028352916020019161064f565b820191906000526020600020905b81548152906001019060200180831161063257829003601f168201915b5050505050905090565b6000610664826110e3565b5061066e8261116b565b9050919050565b61068782826106826111a8565b6111b0565b5050565b60095434146106cf576040517f08c379a00000000000000000000000000000000000000000000000000000000081526004016106c690612981565b60405180910390fd5b6000610764600a80546106e190612904565b80601f016020809104026020016040519081016040528092919081815260200182805461070d90612904565b801561075a5780601f1061072f5761010080835404028352916020019161075a565b820191906000526020600020905b81548152906001019060200180831161073d57829003601f168201915b50505050506109eb565b9050600061077182610b65565b905060086000815480929190610786906129d0565b91905055506000600854905061079c33826111c2565b6107a681836111e0565b7f176b02bb2d12439ff7a20b59f402cca16c76f50508b13ef3166a600eb719354a816040516107d591906126bd565b60405180910390a1505050565b600073ffffffffffffffffffffffffffffffffffffffff168273ffffffffffffffffffffffffffffffffffffffff16036108545760006040517f64a0ae9200000000000000000000000000000000000000000000000000000000815260040161084b9190612456565b60405180910390fd5b600061086883836108636111a8565b61123c565b90508373ffffffffffffffffffffffffffffffffffffffff168173ffffffffffffffffffffffffffffffffffffffff16146108de578382826040517f64283d7b0000000000000000000000000000000000000000000000000000000081526004016108d593929190612a18565b60405180910390fd5b50505050565b6108ec611456565b600047905060008111610934576040517f08c379a000000000000000000000000000000000000000000000000000000000815260040161092b90612a9b565b60405180910390fd5b600061093e610bb5565b73ffffffffffffffffffffffffffffffffffffffff168260405161096190612aec565b60006040518083038185875af1925050503d806000811461099e576040519150601f19603f3d011682016040523d82523d6000602084013e6109a3565b606091505b50509050806109e7576040517f08c379a00000000000000000000000000000000000000000000000000000000081526004016109de90612b4d565b60405180910390fd5b5050565b606060006040518060400160405280601a81526020017f646174613a696d6167652f7376672b786d6c3b6261736536342c00000000000081525090506000610a32846114dd565b90508181604051602001610a47929190612ba9565b60405160208183030381529060405292505050919050565b610a7a83838360405180602001604052806000815250610dba565b505050565b6000610a8a826110e3565b9050919050565b60095481565b60008073ffffffffffffffffffffffffffffffffffffffff168273ffffffffffffffffffffffffffffffffffffffff1603610b0a5760006040517f89c62b64000000000000000000000000000000000000000000000000000000008152600401610b019190612456565b60405180910390fd5b600360008373ffffffffffffffffffffffffffffffffffffffff1673ffffffffffffffffffffffffffffffffffffffff168152602001908152602001600020549050919050565b610b59611456565b610b63600061150a565b565b6060610b8f82604051602001610b7b9190612cd7565b6040516020818303038152906040526114dd565b604051602001610b9f9190612d50565b6040516020818303038152906040529050919050565b6000600760009054906101000a900473ffffffffffffffffffffffffffffffffffffffff16905090565b606060018054610bee90612904565b80601f0160208091040260200160405190810160405280929190818152602001828054610c1a90612904565b8015610c675780601f10610c3c57610100808354040283529160200191610c67565b820191906000526020600020905b815481529060010190602001808311610c4a57829003601f168201915b5050505050905090565b610c83610c7c6111a8565b83836115d0565b5050565b600a8054610c9490612904565b80601f0160208091040260200160405190810160405280929190818152602001828054610cc090612904565b8015610d0d5780601f10610ce257610100808354040283529160200191610d0d565b820191906000526020600020905b815481529060010190602001808311610cf057829003601f168201915b505050505081565b610d1d611456565b6000815111610d61576040517f08c379a0000000000000000000000000000000000000000000000000000000008152600401610d5890612dbe565b60405180910390fd5b61138881511115610da7576040517f08c379a0000000000000000000000000000000000000000000000000000000008152600401610d9e90612e2a565b60405180910390fd5b80600a9081610db69190612ff6565b5050565b610dc58484846107e2565b610dd18484848461173f565b50505050565b6060610de2826110e3565b506000600660008481526020019081526020016000208054610e0390612904565b80601f0160208091040260200160405190810160405280929190818152602001828054610e2f90612904565b8015610e7c5780601f10610e5157610100808354040283529160200191610e7c565b820191906000526020600020905b815481529060010190602001808311610e5f57829003601f168201915b505050505090506000610e8d6118f6565b90506000815103610ea2578192505050610ee5565b600082511115610ed7578082604051602001610ebf929190612ba9565b60405160208183030381529060405292505050610ee5565b610ee08461190d565b925050505b919050565b6000600560008473ffffffffffffffffffffffffffffffffffffffff1673ffffffffffffffffffffffffffffffffffffffff16815260200190815260200160002060008373ffffffffffffffffffffffffffffffffffffffff1673ffffffffffffffffffffffffffffffffffffffff16815260200190815260200160002060009054906101000a900460ff16905092915050565b610f86611456565b600073ffffffffffffffffffffffffffffffffffffffff168173ffffffffffffffffffffffffffffffffffffffff1603610ff5576040517f08c379a0000000000000000000000000000000000000000000000000000000008152600401610fec9061313a565b60405180910390fd5b610ffe8161150a565b50565b60007f80ac58cd000000000000000000000000000000000000000000000000000000007bffffffffffffffffffffffffffffffffffffffffffffffffffffffff1916827bffffffffffffffffffffffffffffffffffffffffffffffffffffffff191614806110cc57507f5b5e139f000000000000000000000000000000000000000000000000000000007bffffffffffffffffffffffffffffffffffffffffffffffffffffffff1916827bffffffffffffffffffffffffffffffffffffffffffffffffffffffff1916145b806110dc57506110db82611976565b5b9050919050565b6000806110ef836119e0565b9050600073ffffffffffffffffffffffffffffffffffffffff168173ffffffffffffffffffffffffffffffffffffffff160361116257826040517f7e27328900000000000000000000000000000000000000000000000000000000815260040161115991906126bd565b60405180910390fd5b80915050919050565b60006004600083815260200190815260200160002060009054906101000a900473ffffffffffffffffffffffffffffffffffffffff169050919050565b600033905090565b6111bd8383836001611a1d565b505050565b6111dc828260405180602001604052806000815250611be2565b5050565b806006600084815260200190815260200160002090816112009190612ff6565b507ff8e1a15aba9398e019f0b49df1a4fde98ee17ae345cb5f6b5e2c27f5033e8ce78260405161123091906126bd565b60405180910390a15050565b600080611248846119e0565b9050600073ffffffffffffffffffffffffffffffffffffffff168373ffffffffffffffffffffffffffffffffffffffff161461128a57611289818486611bfe565b5b600073ffffffffffffffffffffffffffffffffffffffff168173ffffffffffffffffffffffffffffffffffffffff161461131b576112cc600085600080611a1d565b6001600360008373ffffffffffffffffffffffffffffffffffffffff1673ffffffffffffffffffffffffffffffffffffffff168152602001908152602001600020600082825403925050819055505b600073ffffffffffffffffffffffffffffffffffffffff168573ffffffffffffffffffffffffffffffffffffffff161461139e576001600360008773ffffffffffffffffffffffffffffffffffffffff1673ffffffffffffffffffffffffffffffffffffffff168152602001908152602001600020600082825401925050819055505b846002600086815260200190815260200160002060006101000a81548173ffffffffffffffffffffffffffffffffffffffff021916908373ffffffffffffffffffffffffffffffffffffffff160217905550838573ffffffffffffffffffffffffffffffffffffffff168273ffffffffffffffffffffffffffffffffffffffff167fddf252ad1be2c89b69c2b068fc378daa952ba7f163c4a11628f55a4df523b3ef60405160405180910390a4809150509392505050565b61145e6111a8565b73ffffffffffffffffffffffffffffffffffffffff1661147c610bb5565b73ffffffffffffffffffffffffffffffffffffffff16146114db5761149f6111a8565b6040517f118cdaa70000000000000000000000000000000000000000000000000000000081526004016114d29190612456565b60405180910390fd5b565b60606115038260405180606001604052806040815260200161333d604091396001611cc2565b9050919050565b6000600760009054906101000a900473ffffffffffffffffffffffffffffffffffffffff16905081600760006101000a81548173ffffffffffffffffffffffffffffffffffffffff021916908373ffffffffffffffffffffffffffffffffffffffff1602179055508173ffffffffffffffffffffffffffffffffffffffff168173ffffffffffffffffffffffffffffffffffffffff167f8be0079c531659141344cd1fd0a4f28419497f9722a3daafe3b4186f6b6457e060405160405180910390a35050565b600073ffffffffffffffffffffffffffffffffffffffff168273ffffffffffffffffffffffffffffffffffffffff160361164157816040517f5b08ba180000000000000000000000000000000000000000000000000000000081526004016116389190612456565b60405180910390fd5b80600560008573ffffffffffffffffffffffffffffffffffffffff1673ffffffffffffffffffffffffffffffffffffffff16815260200190815260200160002060008473ffffffffffffffffffffffffffffffffffffffff1673ffffffffffffffffffffffffffffffffffffffff16815260200190815260200160002060006101000a81548160ff0219169083151502179055508173ffffffffffffffffffffffffffffffffffffffff168373ffffffffffffffffffffffffffffffffffffffff167f17307eab39ab6107e8899845ad3d59bd9653f200f220920489ca2b5937696c318360405161173291906122e5565b60405180910390a3505050565b60008373ffffffffffffffffffffffffffffffffffffffff163b11156118f0578273ffffffffffffffffffffffffffffffffffffffff1663150b7a026117836111a8565b8685856040518563ffffffff1660e01b81526004016117a594939291906131af565b6020604051808303816000875af19250505080156117e157506040513d601f19601f820116820180604052508101906117de9190613210565b60015b611865573d8060008114611811576040519150601f19603f3d011682016040523d82523d6000602084013e611816565b606091505b50600081510361185d57836040517f64a0ae920000000000000000000000000000000000000000000000000000000081526004016118549190612456565b60405180910390fd5b805181602001fd5b63150b7a0260e01b7bffffffffffffffffffffffffffffffffffffffffffffffffffffffff1916817bffffffffffffffffffffffffffffffffffffffffffffffffffffffff1916146118ee57836040517f64a0ae920000000000000000000000000000000000000000000000000000000081526004016118e59190612456565b60405180910390fd5b505b50505050565b606060405180602001604052806000815250905090565b6060611918826110e3565b5060006119236118f6565b90506000815111611943576040518060200160405280600081525061196e565b8061194d84611e56565b60405160200161195e929190612ba9565b6040516020818303038152906040525b915050919050565b60007f01ffc9a7000000000000000000000000000000000000000000000000000000007bffffffffffffffffffffffffffffffffffffffffffffffffffffffff1916827bffffffffffffffffffffffffffffffffffffffffffffffffffffffff1916149050919050565b60006002600083815260200190815260200160002060009054906101000a900473ffffffffffffffffffffffffffffffffffffffff169050919050565b8080611a565750600073ffffffffffffffffffffffffffffffffffffffff168273ffffffffffffffffffffffffffffffffffffffff1614155b15611b8a576000611a66846110e3565b9050600073ffffffffffffffffffffffffffffffffffffffff168373ffffffffffffffffffffffffffffffffffffffff1614158015611ad157508273ffffffffffffffffffffffffffffffffffffffff168173ffffffffffffffffffffffffffffffffffffffff1614155b8015611ae45750611ae28184610eea565b155b15611b2657826040517fa9fbf51f000000000000000000000000000000000000000000000000000000008152600401611b1d9190612456565b60405180910390fd5b8115611b8857838573ffffffffffffffffffffffffffffffffffffffff168273ffffffffffffffffffffffffffffffffffffffff167f8c5be1e5ebec7d5bd14f71427d1e84f3dd0314c0f7b2291e5b200ac8c7c3b92560405160405180910390a45b505b836004600085815260200190815260200160002060006101000a81548173ffffffffffffffffffffffffffffffffffffffff021916908373ffffffffffffffffffffffffffffffffffffffff16021790555050505050565b611bec8383611f24565b611bf9600084848461173f565b505050565b611c0983838361201d565b611cbd57600073ffffffffffffffffffffffffffffffffffffffff168373ffffffffffffffffffffffffffffffffffffffff1603611c7e57806040517f7e273289000000000000000000000000000000000000000000000000000000008152600401611c7591906126bd565b60405180910390fd5b81816040517f177e802f000000000000000000000000000000000000000000000000000000008152600401611cb492919061323d565b60405180910390fd5b505050565b60606000845103611ce457604051806020016040528060008152509050611e4f565b600082611d16576003600286516004611cfd9190613266565b611d0791906132a8565b611d11919061330b565b611d3d565b600360028651611d2691906132a8565b611d30919061330b565b6004611d3c9190613266565b5b905060008167ffffffffffffffff811115611d5b57611d5a61253a565b5b6040519080825280601f01601f191660200182016040528015611d8d5781602001600182028036833780820191505090505b50905060018501602082018788518901602081018051600082525b82841015611e03576003840193508351603f8160121c168701518653600186019550603f81600c1c168701518653600186019550603f8160061c168701518653600186019550603f8116870151865360018601955050611da8565b8082528915611e435760038c510660018114611e265760028114611e3957611e41565b603d6001870353603d6002870353611e41565b603d60018703535b505b50505050505080925050505b9392505050565b606060006001611e65846120de565b01905060008167ffffffffffffffff811115611e8457611e8361253a565b5b6040519080825280601f01601f191660200182016040528015611eb65781602001600182028036833780820191505090505b509050600082602001820190505b600115611f19578080600190039150507f3031323334353637383961626364656600000000000000000000000000000000600a86061a8153600a8581611f0d57611f0c6132dc565b5b04945060008503611ec4575b819350505050919050565b600073ffffffffffffffffffffffffffffffffffffffff168273ffffffffffffffffffffffffffffffffffffffff1603611f965760006040517f64a0ae92000000000000000000000000000000000000000000000000000000008152600401611f8d9190612456565b60405180910390fd5b6000611fa48383600061123c565b9050600073ffffffffffffffffffffffffffffffffffffffff168173ffffffffffffffffffffffffffffffffffffffff16146120185760006040517f73c6ac6e00000000000000000000000000000000000000000000000000000000815260040161200f9190612456565b60405180910390fd5b505050565b60008073ffffffffffffffffffffffffffffffffffffffff168373ffffffffffffffffffffffffffffffffffffffff16141580156120d557508273ffffffffffffffffffffffffffffffffffffffff168473ffffffffffffffffffffffffffffffffffffffff16148061209657506120958484610eea565b5b806120d457508273ffffffffffffffffffffffffffffffffffffffff166120bc8361116b565b73ffffffffffffffffffffffffffffffffffffffff16145b5b90509392505050565b600080600090507a184f03e93ff9f4daa797ed6e38ed64bf6a1f010000000000000000831061213c577a184f03e93ff9f4daa797ed6e38ed64bf6a1f0100000000000000008381612132576121316132dc565b5b0492506040810190505b6d04ee2d6d415b85acef81000000008310612179576d04ee2d6d415b85acef8100000000838161216f5761216e6132dc565b5b0492506020810190505b662386f26fc1000083106121a857662386f26fc10000838161219e5761219d6132dc565b5b0492506010810190505b6305f5e10083106121d1576305f5e10083816121c7576121c66132dc565b5b0492506008810190505b61271083106121f65761271083816121ec576121eb6132dc565b5b0492506004810190505b60648310612219576064838161220f5761220e6132dc565b5b0492506002810190505b600a8310612228576001810190505b80915050919050565b6000604051905090565b600080fd5b600080fd5b60007fffffffff0000000000000000000000000000000000000000000000000000000082169050919050565b61227a81612245565b811461228557600080fd5b50565b60008135905061229781612271565b92915050565b6000602082840312156122b3576122b261223b565b5b60006122c184828501612288565b91505092915050565b60008115159050919050565b6122df816122ca565b82525050565b60006020820190506122fa60008301846122d6565b92915050565b600081519050919050565b600082825260208201905092915050565b60005b8381101561233a57808201518184015260208101905061231f565b60008484015250505050565b6000601f19601f8301169050919050565b600061236282612300565b61236c818561230b565b935061237c81856020860161231c565b61238581612346565b840191505092915050565b600060208201905081810360008301526123aa8184612357565b905092915050565b6000819050919050565b6123c5816123b2565b81146123d057600080fd5b50565b6000813590506123e2816123bc565b92915050565b6000602082840312156123fe576123fd61223b565b5b600061240c848285016123d3565b91505092915050565b600073ffffffffffffffffffffffffffffffffffffffff82169050919050565b600061244082612415565b9050919050565b61245081612435565b82525050565b600060208201905061246b6000830184612447565b92915050565b61247a81612435565b811461248557600080fd5b50565b60008135905061249781612471565b92915050565b600080604083850312156124b4576124b361223b565b5b60006124c285828601612488565b92505060206124d3858286016123d3565b9150509250929050565b6000806000606084860312156124f6576124f561223b565b5b600061250486828701612488565b935050602061251586828701612488565b9250506040612526868287016123d3565b9150509250925092565b600080fd5b600080fd5b7f4e487b7100000000000000000000000000000000000000000000000000000000600052604160045260246000fd5b61257282612346565b810181811067ffffffffffffffff821117156125915761259061253a565b5b80604052505050565b60006125a4612231565b90506125b08282612569565b919050565b600067ffffffffffffffff8211156125d0576125cf61253a565b5b6125d982612346565b9050602081019050919050565b82818337600083830152505050565b6000612608612603846125b5565b61259a565b90508281526020810184848401111561262457612623612535565b5b61262f8482856125e6565b509392505050565b600082601f83011261264c5761264b612530565b5b813561265c8482602086016125f5565b91505092915050565b60006020828403121561267b5761267a61223b565b5b600082013567ffffffffffffffff81111561269957612698612240565b5b6126a584828501612637565b91505092915050565b6126b7816123b2565b82525050565b60006020820190506126d260008301846126ae565b92915050565b6000602082840312156126ee576126ed61223b565b5b60006126fc84828501612488565b91505092915050565b61270e816122ca565b811461271957600080fd5b50565b60008135905061272b81612705565b92915050565b600080604083850312156127485761274761223b565b5b600061275685828601612488565b92505060206127678582860161271c565b9150509250929050565b600067ffffffffffffffff82111561278c5761278b61253a565b5b61279582612346565b9050602081019050919050565b60006127b56127b084612771565b61259a565b9050828152602081018484840111156127d1576127d0612535565b5b6127dc8482856125e6565b509392505050565b600082601f8301126127f9576127f8612530565b5b81356128098482602086016127a2565b91505092915050565b6000806000806080858703121561282c5761282b61223b565b5b600061283a87828801612488565b945050602061284b87828801612488565b935050604061285c878288016123d3565b925050606085013567ffffffffffffffff81111561287d5761287c612240565b5b612889878288016127e4565b91505092959194509250565b600080604083850312156128ac576128ab61223b565b5b60006128ba85828601612488565b92505060206128cb85828601612488565b9150509250929050565b7f4e487b7100000000000000000000000000000000000000000000000000000000600052602260045260246000fd5b6000600282049050600182168061291c57607f821691505b60208210810361292f5761292e6128d5565b5b50919050565b7f302e3030303120657468657220726571756972656420746f206d696e74000000600082015250565b600061296b601d8361230b565b915061297682612935565b602082019050919050565b6000602082019050818103600083015261299a8161295e565b9050919050565b7f4e487b7100000000000000000000000000000000000000000000000000000000600052601160045260246000fd5b60006129db826123b2565b91507fffffffffffffffffffffffffffffffffffffffffffffffffffffffffffffffff8203612a0d57612a0c6129a1565b5b600182019050919050565b6000606082019050612a2d6000830186612447565b612a3a60208301856126ae565b612a476040830184612447565b949350505050565b7f4e6f2066756e647320617661696c61626c650000000000000000000000000000600082015250565b6000612a8560128361230b565b9150612a9082612a4f565b602082019050919050565b60006020820190508181036000830152612ab481612a78565b9050919050565b600081905092915050565b50565b6000612ad6600083612abb565b9150612ae182612ac6565b600082019050919050565b6000612af782612ac9565b9150819050919050565b7f5769746864726177616c206661696c6564000000000000000000000000000000600082015250565b6000612b3760118361230b565b9150612b4282612b01565b602082019050919050565b60006020820190508181036000830152612b6681612b2a565b9050919050565b600081905092915050565b6000612b8382612300565b612b8d8185612b6d565b9350612b9d81856020860161231c565b80840191505092915050565b6000612bb58285612b78565b9150612bc18284612b78565b91508190509392505050565b7f7b226e616d65223a2022466c756666792046757279222c20226465736372697060008201527f74696f6e223a2022596f75722061636365737320696e746f20616e792065766560208201527f6e742063726561746564207573696e67207468697320746f6b656e206164647260408201527f657373222c2022696d616765223a220000000000000000000000000000000000606082015250565b6000612c75606f83612b6d565b9150612c8082612bcd565b606f82019050919050565b7f227d000000000000000000000000000000000000000000000000000000000000600082015250565b6000612cc1600283612b6d565b9150612ccc82612c8b565b600282019050919050565b6000612ce282612c68565b9150612cee8284612b78565b9150612cf982612cb4565b915081905092915050565b7f646174613a6170706c69636174696f6e2f6a736f6e3b6261736536342c000000600082015250565b6000612d3a601d83612b6d565b9150612d4582612d04565b601d82019050919050565b6000612d5b82612d2d565b9150612d678284612b78565b915081905092915050565b7f53564720646174612063616e6e6f7420626520656d7074790000000000000000600082015250565b6000612da860188361230b565b9150612db382612d72565b602082019050919050565b60006020820190508181036000830152612dd781612d9b565b9050919050565b7f535647206461746120746f6f206c617267650000000000000000000000000000600082015250565b6000612e1460128361230b565b9150612e1f82612dde565b602082019050919050565b60006020820190508181036000830152612e4381612e07565b9050919050565b60008190508160005260206000209050919050565b60006020601f8301049050919050565b600082821b905092915050565b600060088302612eac7fffffffffffffffffffffffffffffffffffffffffffffffffffffffffffffffff82612e6f565b612eb68683612e6f565b95508019841693508086168417925050509392505050565b6000819050919050565b6000612ef3612eee612ee9846123b2565b612ece565b6123b2565b9050919050565b6000819050919050565b612f0d83612ed8565b612f21612f1982612efa565b848454612e7c565b825550505050565b600090565b612f36612f29565b612f41818484612f04565b505050565b5b81811015612f6557612f5a600082612f2e565b600181019050612f47565b5050565b601f821115612faa57612f7b81612e4a565b612f8484612e5f565b81016020851015612f93578190505b612fa7612f9f85612e5f565b830182612f46565b50505b505050565b600082821c905092915050565b6000612fcd60001984600802612faf565b1980831691505092915050565b6000612fe68383612fbc565b9150826002028217905092915050565b612fff82612300565b67ffffffffffffffff8111156130185761301761253a565b5b6130228254612904565b61302d828285612f69565b600060209050601f831160018114613060576000841561304e578287015190505b6130588582612fda565b8655506130c0565b601f19841661306e86612e4a565b60005b8281101561309657848901518255600182019150602085019450602081019050613071565b868310156130b357848901516130af601f891682612fbc565b8355505b6001600288020188555050505b505050505050565b7f4e6577206f776e65722063616e6e6f7420626520746865207a65726f2061646460008201527f7265737300000000000000000000000000000000000000000000000000000000602082015250565b600061312460248361230b565b915061312f826130c8565b604082019050919050565b6000602082019050818103600083015261315381613117565b9050919050565b600081519050919050565b600082825260208201905092915050565b60006131818261315a565b61318b8185613165565b935061319b81856020860161231c565b6131a481612346565b840191505092915050565b60006080820190506131c46000830187612447565b6131d16020830186612447565b6131de60408301856126ae565b81810360608301526131f08184613176565b905095945050505050565b60008151905061320a81612271565b92915050565b6000602082840312156132265761322561223b565b5b6000613234848285016131fb565b91505092915050565b60006040820190506132526000830185612447565b61325f60208301846126ae565b9392505050565b6000613271826123b2565b915061327c836123b2565b925082820261328a816123b2565b915082820484148315176132a1576132a06129a1565b5b5092915050565b60006132b3826123b2565b91506132be836123b2565b92508282019050808211156132d6576132d56129a1565b5b92915050565b7f4e487b7100000000000000000000000000000000000000000000000000000000600052601260045260246000fd5b6000613316826123b2565b9150613321836123b2565b925082613331576133306132dc565b5b82820490509291505056fe4142434445464748494a4b4c4d4e4f505152535455565758595a6162636465666768696a6b6c6d6e6f707172737475767778797a303132333435363738392b2fa2646970667358221220f1a1a46abdc0ea2e367c70d79d69481c4d0e6e587eee1932b56afa37249682e564736f6c63430008180033",
  "linkReferences": {},
  "deployedLinkReferences": {}
}