{
  "_format": "hh-sol-artifact-1",
  "contractName": "NFTGatedEventManager",
  "sourceName": "contracts/NFTGatedEventManager.sol",
  "abi": [
    {
      "inputs": [],
      "stateMutability": "nonpayable",
      "type": "constructor"
    },
    {
      "anonymous": false,
      "inputs": [
        {
          "indexed": false,
          "internalType": "uint256",
          "name": "eventId",
          "type": "uint256"
        },
        {
          "indexed": false,
          "internalType": "string",
          "name": "eventName",
          "type": "string"
        },
        {
          "indexed": false,
          "internalType": "uint256",
          "name": "eventDate",
          "type": "uint256"
        },
        {
          "indexed": false,
          "internalType": "address",
          "name": "nftRequired",
          "type": "address"
        },
        {
          "indexed": false,
          "internalType": "uint256",
          "name": "maxCapacity",
          "type": "uint256"
        }
      ],
      "name": "EventCreated",
      "type": "event"
    },
    {
      "anonymous": false,
      "inputs": [
        {
          "indexed": false,
          "internalType": "uint256",
          "name": "eventId",
          "type": "uint256"
        },
        {
          "indexed": false,
          "internalType": "bool",
          "name": "newStatus",
          "type": "bool"
        }
      ],
      "name": "EventStatusUpdated",
      "type": "event"
    },
    {
      "anonymous": false,
      "inputs": [
        {
          "indexed": false,
          "internalType": "uint256",
          "name": "eventId",
          "type": "uint256"
        },
        {
          "indexed": false,
          "internalType": "address",
          "name": "user",
          "type": "address"
        }
      ],
      "name": "UserRegistered",
      "type": "event"
    },
    {
      "inputs": [
        {
          "internalType": "string",
          "name": "_eventName",
          "type": "string"
        },
        {
          "internalType": "uint256",
          "name": "_eventDate",
          "type": "uint256"
        },
        {
          "internalType": "address",
          "name": "_nftRequired",
          "type": "address"
        },
        {
          "internalType": "uint256",
          "name": "_maxCapacity",
          "type": "uint256"
        }
      ],
      "name": "createEvent",
      "outputs": [],
      "stateMutability": "nonpayable",
      "type": "function"
    },
    {
      "inputs": [],
      "name": "eventIdCounter",
      "outputs": [
        {
          "internalType": "uint256",
          "name": "",
          "type": "uint256"
        }
      ],
      "stateMutability": "view",
      "type": "function"
    },
    {
      "inputs": [
        {
          "internalType": "uint256",
          "name": "",
          "type": "uint256"
        }
      ],
      "name": "events",
      "outputs": [
        {
          "internalType": "string",
          "name": "eventName",
          "type": "string"
        },
        {
          "internalType": "uint256",
          "name": "eventDate",
          "type": "uint256"
        },
        {
          "internalType": "address",
          "name": "nftRequired",
          "type": "address"
        },
        {
          "internalType": "bool",
          "name": "isActive",
          "type": "bool"
        },
        {
          "internalType": "uint256",
          "name": "maxCapacity",
          "type": "uint256"
        },
        {
          "internalType": "uint256",
          "name": "registeredCount",
          "type": "uint256"
        }
      ],
      "stateMutability": "view",
      "type": "function"
    },
    {
      "inputs": [
        {
          "internalType": "uint256",
          "name": "_eventId",
          "type": "uint256"
        }
      ],
      "name": "getEventDetails",
      "outputs": [
        {
          "internalType": "string",
          "name": "",
          "type": "string"
        },
        {
          "internalType": "uint256",
          "name": "",
          "type": "uint256"
        },
        {
          "internalType": "address",
          "name": "",
          "type": "address"
        },
        {
          "internalType": "uint256",
          "name": "",
          "type": "uint256"
        },
        {
          "internalType": "uint256",
          "name": "",
          "type": "uint256"
        },
        {
          "internalType": "bool",
          "name": "",
          "type": "bool"
        }
      ],
      "stateMutability": "view",
      "type": "function"
    },
    {
      "inputs": [
        {
          "internalType": "uint256",
          "name": "_eventId",
          "type": "uint256"
        },
        {
          "internalType": "address",
          "name": "_user",
          "type": "address"
        }
      ],
      "name": "isUserRegistered",
      "outputs": [
        {
          "internalType": "bool",
          "name": "",
          "type": "bool"
        }
      ],
      "stateMutability": "view",
      "type": "function"
    },
    {
      "inputs": [],
      "name": "owner",
      "outputs": [
        {
          "internalType": "address",
          "name": "",
          "type": "address"
        }
      ],
      "stateMutability": "view",
      "type": "function"
    },
    {
      "inputs": [
        {
          "internalType": "uint256",
          "name": "_eventId",
          "type": "uint256"
        }
      ],
      "name": "registerForEvent",
      "outputs": [],
      "stateMutability": "nonpayable",
      "type": "function"
    },
    {
      "inputs": [
        {
          "internalType": "uint256",
          "name": "_eventId",
          "type": "uint256"
        },
        {
          "internalType": "bool",
          "name": "_isActive",
          "type": "bool"
        }
      ],
      "name": "updateEventStatus",
      "outputs": [],
      "stateMutability": "nonpayable",
      "type": "function"
    }
  ],
  "bytecode": "0x608060405234801561001057600080fd5b5033600260006101000a81548173ffffffffffffffffffffffffffffffffffffffff021916908373ffffffffffffffffffffffffffffffffffffffff160217905550611aed806100616000396000f3fe608060405234801561001057600080fd5b50600436106100885760003560e01c806357f697991161005b57806357f69799146101165780638da5cb5b14610146578063e01a0ebe14610164578063ec38d5a01461018257610088565b8063018c97241461008d5780630b791430146100a9578063406db843146100de57806354484fb0146100fa575b600080fd5b6100a760048036038101906100a29190610d8b565b6101b7565b005b6100c360048036038101906100be9190610e0e565b6104f0565b6040516100d596959493929190610ef3565b60405180910390f35b6100f860048036038101906100f39190610e0e565b6105e1565b005b610114600480360381019061010f9190610f87565b6108f9565b005b610130600480360381019061012b9190610fc7565b6109fa565b60405161013d9190611007565b60405180910390f35b61014e610a65565b60405161015b9190611022565b60405180910390f35b61016c610a8b565b604051610179919061103d565b60405180910390f35b61019c60048036038101906101979190610e0e565b610a91565b6040516101ae96959493929190611058565b60405180910390f35b600260009054906101000a900473ffffffffffffffffffffffffffffffffffffffff1673ffffffffffffffffffffffffffffffffffffffff163373ffffffffffffffffffffffffffffffffffffffff1614610247576040517f08c379a000000000000000000000000000000000000000000000000000000000815260040161023e90611132565b60405180910390fd5b428311610289576040517f08c379a0000000000000000000000000000000000000000000000000000000008152600401610280906111c4565b60405180910390fd5b600081116102cc576040517f08c379a00000000000000000000000000000000000000000000000000000000081526004016102c390611256565b60405180910390fd5b6000823b905060008163ffffffff161161031b576040517f08c379a0000000000000000000000000000000000000000000000000000000008152600401610312906112e8565b60405180910390fd5b8273ffffffffffffffffffffffffffffffffffffffff166301ffc9a77f80ac58cd000000000000000000000000000000000000000000000000000000006040518263ffffffff1660e01b81526004016103749190611343565b602060405180830381865afa158015610391573d6000803e3d6000fd5b505050506040513d601f19601f820116820180604052508101906103b59190611373565b6103f4576040517f08c379a00000000000000000000000000000000000000000000000000000000081526004016103eb90611412565b60405180910390fd5b6000600160008054815260200190815260200160002090508581600001908161041d919061163e565b50848160010181905550838160020160006101000a81548173ffffffffffffffffffffffffffffffffffffffff021916908373ffffffffffffffffffffffffffffffffffffffff16021790555082816003018190555060018160020160146101000a81548160ff0219169083151502179055507f88f91a8cee50507bf8f67ddf436d225a426a493c10f4a94db0ad16d480de7dd7600054878787876040516104c9959493929190611710565b60405180910390a16000808154809291906104e390611799565b9190505550505050505050565b600160205280600052604060002060009150905080600001805461051390611461565b80601f016020809104026020016040519081016040528092919081815260200182805461053f90611461565b801561058c5780601f106105615761010080835404028352916020019161058c565b820191906000526020600020905b81548152906001019060200180831161056f57829003601f168201915b5050505050908060010154908060020160009054906101000a900473ffffffffffffffffffffffffffffffffffffffff16908060020160149054906101000a900460ff16908060030154908060040154905086565b60006001600083815260200190815260200160002090508060020160149054906101000a900460ff16610649576040517f08c379a00000000000000000000000000000000000000000000000000000000081526004016106409061182d565b60405180910390fd5b8060010154421061068f576040517f08c379a000000000000000000000000000000000000000000000000000000000815260040161068690611899565b60405180910390fd5b80600301548160040154106106d9576040517f08c379a00000000000000000000000000000000000000000000000000000000081526004016106d090611905565b60405180910390fd5b8060050160003373ffffffffffffffffffffffffffffffffffffffff1673ffffffffffffffffffffffffffffffffffffffff16815260200190815260200160002060009054906101000a900460ff1615610768576040517f08c379a000000000000000000000000000000000000000000000000000000000815260040161075f90611997565b60405180910390fd5b60008160020160009054906101000a900473ffffffffffffffffffffffffffffffffffffffff1673ffffffffffffffffffffffffffffffffffffffff166370a08231336040518263ffffffff1660e01b81526004016107c79190611022565b602060405180830381865afa1580156107e4573d6000803e3d6000fd5b505050506040513d601f19601f8201168201806040525081019061080891906119cc565b11610848576040517f08c379a000000000000000000000000000000000000000000000000000000000815260040161083f90611a45565b60405180910390fd5b60018160050160003373ffffffffffffffffffffffffffffffffffffffff1673ffffffffffffffffffffffffffffffffffffffff16815260200190815260200160002060006101000a81548160ff0219169083151502179055508060040160008154809291906108b790611799565b91905055507fb442efe467d2ef30e62927a3cae0afcbc799a8a0944d8a143332e4e5e51cee5d82336040516108ed929190611a65565b60405180910390a15050565b600260009054906101000a900473ffffffffffffffffffffffffffffffffffffffff1673ffffffffffffffffffffffffffffffffffffffff163373ffffffffffffffffffffffffffffffffffffffff1614610989576040517f08c379a000000000000000000000000000000000000000000000000000000000815260040161098090611132565b60405180910390fd5b6000600160008481526020019081526020016000209050818160020160146101000a81548160ff0219169083151502179055507fa84e22267ca5f39c3dc082a44444f3f681b9f38a5287a019487a246f28a04b0983836040516109ed929190611a8e565b60405180910390a1505050565b60006001600084815260200190815260200160002060050160008373ffffffffffffffffffffffffffffffffffffffff1673ffffffffffffffffffffffffffffffffffffffff16815260200190815260200160002060009054906101000a900460ff16905092915050565b600260009054906101000a900473ffffffffffffffffffffffffffffffffffffffff1681565b60005481565b60606000806000806000806001600089815260200190815260200160002090508060000181600101548260020160009054906101000a900473ffffffffffffffffffffffffffffffffffffffff16836003015484600401548560020160149054906101000a900460ff16858054610b0790611461565b80601f0160208091040260200160405190810160405280929190818152602001828054610b3390611461565b8015610b805780601f10610b5557610100808354040283529160200191610b80565b820191906000526020600020905b815481529060010190602001808311610b6357829003601f168201915b505050505095509650965096509650965096505091939550919395565b6000604051905090565b600080fd5b600080fd5b600080fd5b600080fd5b6000601f19601f8301169050919050565b7f4e487b7100000000000000000000000000000000000000000000000000000000600052604160045260246000fd5b610c0482610bbb565b810181811067ffffffffffffffff82111715610c2357610c22610bcc565b5b80604052505050565b6000610c36610b9d565b9050610c428282610bfb565b919050565b600067ffffffffffffffff821115610c6257610c61610bcc565b5b610c6b82610bbb565b9050602081019050919050565b82818337600083830152505050565b6000610c9a610c9584610c47565b610c2c565b905082815260208101848484011115610cb657610cb5610bb6565b5b610cc1848285610c78565b509392505050565b600082601f830112610cde57610cdd610bb1565b5b8135610cee848260208601610c87565b91505092915050565b6000819050919050565b610d0a81610cf7565b8114610d1557600080fd5b50565b600081359050610d2781610d01565b92915050565b600073ffffffffffffffffffffffffffffffffffffffff82169050919050565b6000610d5882610d2d565b9050919050565b610d6881610d4d565b8114610d7357600080fd5b50565b600081359050610d8581610d5f565b92915050565b60008060008060808587031215610da557610da4610ba7565b5b600085013567ffffffffffffffff811115610dc357610dc2610bac565b5b610dcf87828801610cc9565b9450506020610de087828801610d18565b9350506040610df187828801610d76565b9250506060610e0287828801610d18565b91505092959194509250565b600060208284031215610e2457610e23610ba7565b5b6000610e3284828501610d18565b91505092915050565b600081519050919050565b600082825260208201905092915050565b60005b83811015610e75578082015181840152602081019050610e5a565b60008484015250505050565b6000610e8c82610e3b565b610e968185610e46565b9350610ea6818560208601610e57565b610eaf81610bbb565b840191505092915050565b610ec381610cf7565b82525050565b610ed281610d4d565b82525050565b60008115159050919050565b610eed81610ed8565b82525050565b600060c0820190508181036000830152610f0d8189610e81565b9050610f1c6020830188610eba565b610f296040830187610ec9565b610f366060830186610ee4565b610f436080830185610eba565b610f5060a0830184610eba565b979650505050505050565b610f6481610ed8565b8114610f6f57600080fd5b50565b600081359050610f8181610f5b565b92915050565b60008060408385031215610f9e57610f9d610ba7565b5b6000610fac85828601610d18565b9250506020610fbd85828601610f72565b9150509250929050565b60008060408385031215610fde57610fdd610ba7565b5b6000610fec85828601610d18565b9250506020610ffd85828601610d76565b9150509250929050565b600060208201905061101c6000830184610ee4565b92915050565b60006020820190506110376000830184610ec9565b92915050565b60006020820190506110526000830184610eba565b92915050565b600060c08201905081810360008301526110728189610e81565b90506110816020830188610eba565b61108e6040830187610ec9565b61109b6060830186610eba565b6110a86080830185610eba565b6110b560a0830184610ee4565b979650505050505050565b7f4f6e6c792074686520636f6e7472616374206f776e65722063616e2063616c6c60008201527f20746869732066756e6374696f6e2e0000000000000000000000000000000000602082015250565b600061111c602f83610e46565b9150611127826110c0565b604082019050919050565b6000602082019050818103600083015261114b8161110f565b9050919050565b7f4576656e742064617465206d75737420626520696e207468652066757475726560008201527f2e00000000000000000000000000000000000000000000000000000000000000602082015250565b60006111ae602183610e46565b91506111b982611152565b604082019050919050565b600060208201905081810360008301526111dd816111a1565b9050919050565b7f4d6178206361706163697479206d75737420626520677265617465722074686160008201527f6e207a65726f2e00000000000000000000000000000000000000000000000000602082015250565b6000611240602783610e46565b915061124b826111e4565b604082019050919050565b6000602082019050818103600083015261126f81611233565b9050919050565b7f5265717569726564204e46542061646472657373206973206e6f74206120636f60008201527f6e74726163740000000000000000000000000000000000000000000000000000602082015250565b60006112d2602683610e46565b91506112dd82611276565b604082019050919050565b60006020820190508181036000830152611301816112c5565b9050919050565b60007fffffffff0000000000000000000000000000000000000000000000000000000082169050919050565b61133d81611308565b82525050565b60006020820190506113586000830184611334565b92915050565b60008151905061136d81610f5b565b92915050565b60006020828403121561138957611388610ba7565b5b60006113978482850161135e565b91505092915050565b7f5265717569726564204e46542041646472657373206973206e6f7420616e204560008201527f524337323120636f6e7472616374000000000000000000000000000000000000602082015250565b60006113fc602e83610e46565b9150611407826113a0565b604082019050919050565b6000602082019050818103600083015261142b816113ef565b9050919050565b7f4e487b7100000000000000000000000000000000000000000000000000000000600052602260045260246000fd5b6000600282049050600182168061147957607f821691505b60208210810361148c5761148b611432565b5b50919050565b60008190508160005260206000209050919050565b60006020601f8301049050919050565b600082821b905092915050565b6000600883026114f47fffffffffffffffffffffffffffffffffffffffffffffffffffffffffffffffff826114b7565b6114fe86836114b7565b95508019841693508086168417925050509392505050565b6000819050919050565b600061153b61153661153184610cf7565b611516565b610cf7565b9050919050565b6000819050919050565b61155583611520565b61156961156182611542565b8484546114c4565b825550505050565b600090565b61157e611571565b61158981848461154c565b505050565b5b818110156115ad576115a2600082611576565b60018101905061158f565b5050565b601f8211156115f2576115c381611492565b6115cc846114a7565b810160208510156115db578190505b6115ef6115e7856114a7565b83018261158e565b50505b505050565b600082821c905092915050565b6000611615600019846008026115f7565b1980831691505092915050565b600061162e8383611604565b9150826002028217905092915050565b61164782610e3b565b67ffffffffffffffff8111156116605761165f610bcc565b5b61166a8254611461565b6116758282856115b1565b600060209050601f8311600181146116a85760008415611696578287015190505b6116a08582611622565b865550611708565b601f1984166116b686611492565b60005b828110156116de578489015182556001820191506020850194506020810190506116b9565b868310156116fb57848901516116f7601f891682611604565b8355505b6001600288020188555050505b505050505050565b600060a0820190506117256000830188610eba565b81810360208301526117378187610e81565b90506117466040830186610eba565b6117536060830185610ec9565b6117606080830184610eba565b9695505050505050565b7f4e487b7100000000000000000000000000000000000000000000000000000000600052601160045260246000fd5b60006117a482610cf7565b91507fffffffffffffffffffffffffffffffffffffffffffffffffffffffffffffffff82036117d6576117d561176a565b5b600182019050919050565b7f4576656e74206973206e6f74206163746976652e000000000000000000000000600082015250565b6000611817601483610e46565b9150611822826117e1565b602082019050919050565b600060208201905081810360008301526118468161180a565b9050919050565b7f4576656e7420726567697374726174696f6e2068617320636c6f7365642e0000600082015250565b6000611883601e83610e46565b915061188e8261184d565b602082019050919050565b600060208201905081810360008301526118b281611876565b9050919050565b7f4576656e742069732066756c6c7920626f6f6b65642e00000000000000000000600082015250565b60006118ef601683610e46565b91506118fa826118b9565b602082019050919050565b6000602082019050818103600083015261191e816118e2565b9050919050565b7f596f752061726520616c7265616479207265676973746572656420666f72207460008201527f686973206576656e742e00000000000000000000000000000000000000000000602082015250565b6000611981602a83610e46565b915061198c82611925565b604082019050919050565b600060208201905081810360008301526119b081611974565b9050919050565b6000815190506119c681610d01565b92915050565b6000602082840312156119e2576119e1610ba7565b5b60006119f0848285016119b7565b91505092915050565b7f596f7520646f206e6f74206f776e20746865207265717569726564204e46542e600082015250565b6000611a2f602083610e46565b9150611a3a826119f9565b602082019050919050565b60006020820190508181036000830152611a5e81611a22565b9050919050565b6000604082019050611a7a6000830185610eba565b611a876020830184610ec9565b9392505050565b6000604082019050611aa36000830185610eba565b611ab06020830184610ee4565b939250505056fea2646970667358221220b81122f3d7fa77d393f93b387b6461c781010b6213edb81c2d5b17c3c36778a064736f6c63430008180033",
  "linkReferences": {},
  "deployedLinkReferences": {}
}