{
  "_format": "hh-sol-artifact-1",
  "contractName": "NFTGatedEventManager",
  "sourceName": "contracts/NFTGatedEventManager.sol",
  "abi": [
    {
      "inputs": [],
      "stateMutability": "nonpayable",
      "type": "constructor"
    },
    {
      "anonymous": false,
      "inputs": [
        {
          "indexed": false,
          "internalType": "uint256",
          "name": "eventId",
          "type": "uint256"
        },
        {
          "indexed": false,
          "internalType": "string",
          "name": "eventName",
          "type": "string"
        },
        {
          "indexed": false,
          "internalType": "uint256",
          "name": "eventDate",
          "type": "uint256"
        },
        {
          "indexed": false,
          "internalType": "address",
          "name": "nftRequired",
          "type": "address"
        },
        {
          "indexed": false,
          "internalType": "uint256",
          "name": "maxCapacity",
          "type": "uint256"
        }
      ],
      "name": "EventCreated",
      "type": "event"
    },
    {
      "anonymous": false,
      "inputs": [
        {
          "indexed": false,
          "internalType": "uint256",
          "name": "eventId",
          "type": "uint256"
        },
        {
          "indexed": false,
          "internalType": "bool",
          "name": "newStatus",
          "type": "bool"
        }
      ],
      "name": "EventStatusUpdated",
      "type": "event"
    },
    {
      "anonymous": false,
      "inputs": [
        {
          "indexed": false,
          "internalType": "uint256",
          "name": "eventId",
          "type": "uint256"
        },
        {
          "indexed": false,
          "internalType": "address",
          "name": "user",
          "type": "address"
        }
      ],
      "name": "UserRegistered",
      "type": "event"
    },
    {
      "inputs": [
        {
          "internalType": "string",
          "name": "_eventName",
          "type": "string"
        },
        {
          "internalType": "uint256",
          "name": "_eventDate",
          "type": "uint256"
        },
        {
          "internalType": "address",
          "name": "_nftRequired",
          "type": "address"
        },
        {
          "internalType": "uint256",
          "name": "_maxCapacity",
          "type": "uint256"
        }
      ],
      "name": "createEvent",
      "outputs": [],
      "stateMutability": "nonpayable",
      "type": "function"
    },
    {
      "inputs": [],
      "name": "eventIdCounter",
      "outputs": [
        {
          "internalType": "uint256",
          "name": "",
          "type": "uint256"
        }
      ],
      "stateMutability": "view",
      "type": "function"
    },
    {
      "inputs": [
        {
          "internalType": "uint256",
          "name": "",
          "type": "uint256"
        }
      ],
      "name": "events",
      "outputs": [
        {
          "internalType": "string",
          "name": "eventName",
          "type": "string"
        },
        {
          "internalType": "uint256",
          "name": "eventDate",
          "type": "uint256"
        },
        {
          "internalType": "address",
          "name": "nftRequired",
          "type": "address"
        },
        {
          "internalType": "uint256",
          "name": "maxCapacity",
          "type": "uint256"
        },
        {
          "internalType": "uint256",
          "name": "registeredCount",
          "type": "uint256"
        },
        {
          "internalType": "bool",
          "name": "isActive",
          "type": "bool"
        }
      ],
      "stateMutability": "view",
      "type": "function"
    },
    {
      "inputs": [
        {
          "internalType": "uint256",
          "name": "_eventId",
          "type": "uint256"
        }
      ],
      "name": "getEventDetails",
      "outputs": [
        {
          "internalType": "string",
          "name": "",
          "type": "string"
        },
        {
          "internalType": "uint256",
          "name": "",
          "type": "uint256"
        },
        {
          "internalType": "address",
          "name": "",
          "type": "address"
        },
        {
          "internalType": "uint256",
          "name": "",
          "type": "uint256"
        },
        {
          "internalType": "uint256",
          "name": "",
          "type": "uint256"
        },
        {
          "internalType": "bool",
          "name": "",
          "type": "bool"
        }
      ],
      "stateMutability": "view",
      "type": "function"
    },
    {
      "inputs": [
        {
          "internalType": "uint256",
          "name": "_eventId",
          "type": "uint256"
        },
        {
          "internalType": "address",
          "name": "_user",
          "type": "address"
        }
      ],
      "name": "isUserRegistered",
      "outputs": [
        {
          "internalType": "bool",
          "name": "",
          "type": "bool"
        }
      ],
      "stateMutability": "view",
      "type": "function"
    },
    {
      "inputs": [],
      "name": "owner",
      "outputs": [
        {
          "internalType": "address",
          "name": "",
          "type": "address"
        }
      ],
      "stateMutability": "view",
      "type": "function"
    },
    {
      "inputs": [
        {
          "internalType": "uint256",
          "name": "_eventId",
          "type": "uint256"
        }
      ],
      "name": "registerForEvent",
      "outputs": [],
      "stateMutability": "nonpayable",
      "type": "function"
    },
    {
      "inputs": [
        {
          "internalType": "uint256",
          "name": "_eventId",
          "type": "uint256"
        },
        {
          "internalType": "bool",
          "name": "_isActive",
          "type": "bool"
        }
      ],
      "name": "updateEventStatus",
      "outputs": [],
      "stateMutability": "nonpayable",
      "type": "function"
    }
  ],
  "bytecode": "0x608060405234801561001057600080fd5b5033600260006101000a81548173ffffffffffffffffffffffffffffffffffffffff021916908373ffffffffffffffffffffffffffffffffffffffff1602179055506117a0806100616000396000f3fe608060405234801561001057600080fd5b50600436106100885760003560e01c806357f697991161005b57806357f69799146101165780638da5cb5b14610146578063e01a0ebe14610164578063ec38d5a01461018257610088565b8063018c97241461008d5780630b791430146100a9578063406db843146100de57806354484fb0146100fa575b600080fd5b6100a760048036038101906100a29190610c62565b6101b7565b005b6100c360048036038101906100be9190610ce5565b6103c7565b6040516100d596959493929190610dca565b60405180910390f35b6100f860048036038101906100f39190610ce5565b6104b8565b005b610114600480360381019061010f9190610e5e565b6107d0565b005b610130600480360381019061012b9190610e9e565b6108d1565b60405161013d9190610ede565b60405180910390f35b61014e61093c565b60405161015b9190610ef9565b60405180910390f35b61016c610962565b6040516101799190610f14565b60405180910390f35b61019c60048036038101906101979190610ce5565b610968565b6040516101ae96959493929190610dca565b60405180910390f35b600260009054906101000a900473ffffffffffffffffffffffffffffffffffffffff1673ffffffffffffffffffffffffffffffffffffffff163373ffffffffffffffffffffffffffffffffffffffff1614610247576040517f08c379a000000000000000000000000000000000000000000000000000000000815260040161023e90610fa1565b60405180910390fd5b428311610289576040517f08c379a000000000000000000000000000000000000000000000000000000000815260040161028090611033565b60405180910390fd5b600081116102cc576040517f08c379a00000000000000000000000000000000000000000000000000000000081526004016102c3906110c5565b60405180910390fd5b600060016000805481526020019081526020016000209050848160000190816102f591906112f1565b50838160010181905550828160020160006101000a81548173ffffffffffffffffffffffffffffffffffffffff021916908373ffffffffffffffffffffffffffffffffffffffff16021790555081816003018190555060018160050160006101000a81548160ff0219169083151502179055507f88f91a8cee50507bf8f67ddf436d225a426a493c10f4a94db0ad16d480de7dd7600054868686866040516103a19594939291906113c3565b60405180910390a16000808154809291906103bb9061144c565b91905055505050505050565b60016020528060005260406000206000915090508060000180546103ea90611114565b80601f016020809104026020016040519081016040528092919081815260200182805461041690611114565b80156104635780601f1061043857610100808354040283529160200191610463565b820191906000526020600020905b81548152906001019060200180831161044657829003601f168201915b5050505050908060010154908060020160009054906101000a900473ffffffffffffffffffffffffffffffffffffffff16908060030154908060040154908060050160009054906101000a900460ff16905086565b60006001600083815260200190815260200160002090508060050160009054906101000a900460ff16610520576040517f08c379a0000000000000000000000000000000000000000000000000000000008152600401610517906114e0565b60405180910390fd5b80600101544210610566576040517f08c379a000000000000000000000000000000000000000000000000000000000815260040161055d9061154c565b60405180910390fd5b80600301548160040154106105b0576040517f08c379a00000000000000000000000000000000000000000000000000000000081526004016105a7906115b8565b60405180910390fd5b8060060160003373ffffffffffffffffffffffffffffffffffffffff1673ffffffffffffffffffffffffffffffffffffffff16815260200190815260200160002060009054906101000a900460ff161561063f576040517f08c379a00000000000000000000000000000000000000000000000000000000081526004016106369061164a565b60405180910390fd5b60008160020160009054906101000a900473ffffffffffffffffffffffffffffffffffffffff1673ffffffffffffffffffffffffffffffffffffffff166370a08231336040518263ffffffff1660e01b815260040161069e9190610ef9565b602060405180830381865afa1580156106bb573d6000803e3d6000fd5b505050506040513d601f19601f820116820180604052508101906106df919061167f565b1161071f576040517f08c379a0000000000000000000000000000000000000000000000000000000008152600401610716906116f8565b60405180910390fd5b60018160060160003373ffffffffffffffffffffffffffffffffffffffff1673ffffffffffffffffffffffffffffffffffffffff16815260200190815260200160002060006101000a81548160ff02191690831515021790555080600401600081548092919061078e9061144c565b91905055507fb442efe467d2ef30e62927a3cae0afcbc799a8a0944d8a143332e4e5e51cee5d82336040516107c4929190611718565b60405180910390a15050565b600260009054906101000a900473ffffffffffffffffffffffffffffffffffffffff1673ffffffffffffffffffffffffffffffffffffffff163373ffffffffffffffffffffffffffffffffffffffff1614610860576040517f08c379a000000000000000000000000000000000000000000000000000000000815260040161085790610fa1565b60405180910390fd5b6000600160008481526020019081526020016000209050818160050160006101000a81548160ff0219169083151502179055507fa84e22267ca5f39c3dc082a44444f3f681b9f38a5287a019487a246f28a04b0983836040516108c4929190611741565b60405180910390a1505050565b60006001600084815260200190815260200160002060060160008373ffffffffffffffffffffffffffffffffffffffff1673ffffffffffffffffffffffffffffffffffffffff16815260200190815260200160002060009054906101000a900460ff16905092915050565b600260009054906101000a900473ffffffffffffffffffffffffffffffffffffffff1681565b60005481565b60606000806000806000806001600089815260200190815260200160002090508060000181600101548260020160009054906101000a900473ffffffffffffffffffffffffffffffffffffffff16836003015484600401548560050160009054906101000a900460ff168580546109de90611114565b80601f0160208091040260200160405190810160405280929190818152602001828054610a0a90611114565b8015610a575780601f10610a2c57610100808354040283529160200191610a57565b820191906000526020600020905b815481529060010190602001808311610a3a57829003601f168201915b505050505095509650965096509650965096505091939550919395565b6000604051905090565b600080fd5b600080fd5b600080fd5b600080fd5b6000601f19601f8301169050919050565b7f4e487b7100000000000000000000000000000000000000000000000000000000600052604160045260246000fd5b610adb82610a92565b810181811067ffffffffffffffff82111715610afa57610af9610aa3565b5b80604052505050565b6000610b0d610a74565b9050610b198282610ad2565b919050565b600067ffffffffffffffff821115610b3957610b38610aa3565b5b610b4282610a92565b9050602081019050919050565b82818337600083830152505050565b6000610b71610b6c84610b1e565b610b03565b905082815260208101848484011115610b8d57610b8c610a8d565b5b610b98848285610b4f565b509392505050565b600082601f830112610bb557610bb4610a88565b5b8135610bc5848260208601610b5e565b91505092915050565b6000819050919050565b610be181610bce565b8114610bec57600080fd5b50565b600081359050610bfe81610bd8565b92915050565b600073ffffffffffffffffffffffffffffffffffffffff82169050919050565b6000610c2f82610c04565b9050919050565b610c3f81610c24565b8114610c4a57600080fd5b50565b600081359050610c5c81610c36565b92915050565b60008060008060808587031215610c7c57610c7b610a7e565b5b600085013567ffffffffffffffff811115610c9a57610c99610a83565b5b610ca687828801610ba0565b9450506020610cb787828801610bef565b9350506040610cc887828801610c4d565b9250506060610cd987828801610bef565b91505092959194509250565b600060208284031215610cfb57610cfa610a7e565b5b6000610d0984828501610bef565b91505092915050565b600081519050919050565b600082825260208201905092915050565b60005b83811015610d4c578082015181840152602081019050610d31565b60008484015250505050565b6000610d6382610d12565b610d6d8185610d1d565b9350610d7d818560208601610d2e565b610d8681610a92565b840191505092915050565b610d9a81610bce565b82525050565b610da981610c24565b82525050565b60008115159050919050565b610dc481610daf565b82525050565b600060c0820190508181036000830152610de48189610d58565b9050610df36020830188610d91565b610e006040830187610da0565b610e0d6060830186610d91565b610e1a6080830185610d91565b610e2760a0830184610dbb565b979650505050505050565b610e3b81610daf565b8114610e4657600080fd5b50565b600081359050610e5881610e32565b92915050565b60008060408385031215610e7557610e74610a7e565b5b6000610e8385828601610bef565b9250506020610e9485828601610e49565b9150509250929050565b60008060408385031215610eb557610eb4610a7e565b5b6000610ec385828601610bef565b9250506020610ed485828601610c4d565b9150509250929050565b6000602082019050610ef36000830184610dbb565b92915050565b6000602082019050610f0e6000830184610da0565b92915050565b6000602082019050610f296000830184610d91565b92915050565b7f4f6e6c792074686520636f6e7472616374206f776e65722063616e2063616c6c60008201527f20746869732066756e6374696f6e2e0000000000000000000000000000000000602082015250565b6000610f8b602f83610d1d565b9150610f9682610f2f565b604082019050919050565b60006020820190508181036000830152610fba81610f7e565b9050919050565b7f4576656e742064617465206d75737420626520696e207468652066757475726560008201527f2e00000000000000000000000000000000000000000000000000000000000000602082015250565b600061101d602183610d1d565b915061102882610fc1565b604082019050919050565b6000602082019050818103600083015261104c81611010565b9050919050565b7f4d6178206361706163697479206d75737420626520677265617465722074686160008201527f6e207a65726f2e00000000000000000000000000000000000000000000000000602082015250565b60006110af602783610d1d565b91506110ba82611053565b604082019050919050565b600060208201905081810360008301526110de816110a2565b9050919050565b7f4e487b7100000000000000000000000000000000000000000000000000000000600052602260045260246000fd5b6000600282049050600182168061112c57607f821691505b60208210810361113f5761113e6110e5565b5b50919050565b60008190508160005260206000209050919050565b60006020601f8301049050919050565b600082821b905092915050565b6000600883026111a77fffffffffffffffffffffffffffffffffffffffffffffffffffffffffffffffff8261116a565b6111b1868361116a565b95508019841693508086168417925050509392505050565b6000819050919050565b60006111ee6111e96111e484610bce565b6111c9565b610bce565b9050919050565b6000819050919050565b611208836111d3565b61121c611214826111f5565b848454611177565b825550505050565b600090565b611231611224565b61123c8184846111ff565b505050565b5b8181101561126057611255600082611229565b600181019050611242565b5050565b601f8211156112a55761127681611145565b61127f8461115a565b8101602085101561128e578190505b6112a261129a8561115a565b830182611241565b50505b505050565b600082821c905092915050565b60006112c8600019846008026112aa565b1980831691505092915050565b60006112e183836112b7565b9150826002028217905092915050565b6112fa82610d12565b67ffffffffffffffff81111561131357611312610aa3565b5b61131d8254611114565b611328828285611264565b600060209050601f83116001811461135b5760008415611349578287015190505b61135385826112d5565b8655506113bb565b601f19841661136986611145565b60005b828110156113915784890151825560018201915060208501945060208101905061136c565b868310156113ae57848901516113aa601f8916826112b7565b8355505b6001600288020188555050505b505050505050565b600060a0820190506113d86000830188610d91565b81810360208301526113ea8187610d58565b90506113f96040830186610d91565b6114066060830185610da0565b6114136080830184610d91565b9695505050505050565b7f4e487b7100000000000000000000000000000000000000000000000000000000600052601160045260246000fd5b600061145782610bce565b91507fffffffffffffffffffffffffffffffffffffffffffffffffffffffffffffffff82036114895761148861141d565b5b600182019050919050565b7f4576656e74206973206e6f74206163746976652e000000000000000000000000600082015250565b60006114ca601483610d1d565b91506114d582611494565b602082019050919050565b600060208201905081810360008301526114f9816114bd565b9050919050565b7f4576656e7420726567697374726174696f6e2068617320636c6f7365642e0000600082015250565b6000611536601e83610d1d565b915061154182611500565b602082019050919050565b6000602082019050818103600083015261156581611529565b9050919050565b7f4576656e742069732066756c6c7920626f6f6b65642e00000000000000000000600082015250565b60006115a2601683610d1d565b91506115ad8261156c565b602082019050919050565b600060208201905081810360008301526115d181611595565b9050919050565b7f596f752061726520616c7265616479207265676973746572656420666f72207460008201527f686973206576656e742e00000000000000000000000000000000000000000000602082015250565b6000611634602a83610d1d565b915061163f826115d8565b604082019050919050565b6000602082019050818103600083015261166381611627565b9050919050565b60008151905061167981610bd8565b92915050565b60006020828403121561169557611694610a7e565b5b60006116a38482850161166a565b91505092915050565b7f596f7520646f206e6f74206f776e20746865207265717569726564204e46542e600082015250565b60006116e2602083610d1d565b91506116ed826116ac565b602082019050919050565b60006020820190508181036000830152611711816116d5565b9050919050565b600060408201905061172d6000830185610d91565b61173a6020830184610da0565b9392505050565b60006040820190506117566000830185610d91565b6117636020830184610dbb565b939250505056fea26469706673582212200d1f32708b800eb4cac3182c8dd6719e89a73ada6a6b583100f75f969dad245c64736f6c63430008180033",
  "linkReferences": {},
  "deployedLinkReferences": {}
}